:020000040800F2
:100000003808002045440008212D0008232D000851
:10001000272D00082B2D00082F2D000800000000C0
:10002000000000000000000000000000332D000868
:10003000352D000800000000372D0008392D00087C
:100040005F4400085F4400085F4400085F44000804
:100050005F4400085F4400085F440008BB43000899
:100060005F4400085F4400085F4400085F440008E4
:100070005F4400085F4400085F4400085F440008D4
:100080005F4400085F4400085F4400085F440008C4
:100090005F4400085F4400085F4400085F440008B4
:1000A0005F4400081D4300085F4400085F440008E7
:1000B0005F440008E5230008F52300085F440008BA
:1000C0005F4400085F4400085F4400085F44000884
:1000D0005F4400085F4400085F440008E7340008FC
:1000E0005F4400085F4400085F440008DFF80CD05C
:1000F00007F068FD0048004731220008380800205A
:1001000031490143314A1160704770B50021002325
:100110000F22C47804B32D4C246804F4E064C4F5C1
:10012000E064210AC1F10403CA40447804FA03F1EF
:100130008478144021430901254C0678A1550478A0
:1001400004F01F050124AC4005786D11AD0005F1E8
:10015000E025C5F8004109E0047804F01F050124FA
:10016000AC401C4D0678761145F8264070BD1A4A01
:100170000A400243154B1B1F1A60704739B1134ADE
:10018000121D12680243114B1B1D1A6006E00F4A34
:10019000121D126882430D4B1B1D1A607047042804
:1001A00008D14FF0E021096941F004014FF0E0224D
:1001B000116107E04FF0E021096921F004014FF0DF
:1001C000E0221161704700000000FA050CED00E02C
:1001D00000E400E080E100E080FFFF1F00204449D0
:1001E0000860091D0860091D0860091D0860414874
:1001F0003F4914310860704700213D498279002A47
:100200003AD00A46126803689A430B461A600A1DE0
:10021000126803689A430B1D1A60027911440A6838
:1002200003681A430A60324A0832126803689A4324
:100230002F4B08331A601A1D126803689A432C4B1F
:100240000C331A604279102A0ED11A1F1268036803
:100250001A43274B08331A601A1D126803681A43A1
:10026000234B0C331A600DE02149427911440A688E
:1002700003681A430A6005E0027911440A680368BA
:100280009A430A6070470021016001710C2141719D
:100290000021817170471649103109680143144AE1
:1002A00010321160704701460020114A1432126862
:1002B0000A400AB1012000E0002070470C491431C7
:1002C00008607047014600200022094B1B6803EAC2
:1002D0000102074B14331B680B4013B10AB1012014
:1002E00000E00020704702491431086070470000A8
:1002F00000040140FFFF0F0010B50446CC488442C3
:1003000008D10121042000F02DFB0021042000F081
:1003100029FB46E0C748844208D10121082000F0AB
:1003200021FB0021082000F01DFB3AE0C248844276
:1003300008D10121102000F015FB0021102000F051
:1003400011FB2EE0BD48844208D10121202000F09D
:1003500009FB0021202000F005FB22E0B848844280
:1003600008D10121402000F0FDFA0021402000F0DA
:10037000F9FA16E0B348844208D10121802000F048
:10038000F1FA0021802000F0EDFA0AE0AE48844244
:1003900007D10121801500F0E5FA0021A01500F039
:1003A000E1FA10BD10B50121084600F0DBFA00218A
:1003B000012000F0D7FA10BD2DE9F04102460025DA
:1003C0000026002000230024002791F803C00CF031
:1003D0000F0591F803C00CF0100CBCF1000F03D016
:1003E00091F802C04CEA050591F800C0BCF1000F7D
:1003F00031D0146800202BE04FF0010C0CFA00F310
:10040000B1F800C00CEA03069E4220D183004FF0F1
:100410000F0C0CFA03F7BC4305FA03FC4CEA040486
:1004200091F803C0BCF1280F06D14FF0010C0CFA73
:1004300000FCC2F814C00AE091F803C0BCF1480FF8
:1004400005D14FF0010C0CFA00FCC2F810C0401CA2
:100450000828D1D31460B1F800C0BCF1FF0F34DD1F
:10046000546800202EE000F1080C4FF0010808FA53
:100470000CF3B1F800C00CEA03069E4221D18300C0
:100480004FF00F0C0CFA03F7BC4305FA03FC4CEADF
:10049000040491F803C0BCF1280F05D100F1080C49
:1004A00008FA0CF8C2F8148091F803C0BCF1480FA8
:1004B00007D100F1080C4FF0010808FA0CF8C2F857
:1004C0001080401C0828CED35460BDE8F0814FF660
:1004D000FF710180022181700421C17070470246C2
:1004E000002093680B400BB1012000E00020704712
:1004F0000146886880B2704702460020D3680B40EE
:100500000BB1012000E0002070470146C86880B2AE
:10051000704701617047416170470AB1016100E0B5
:1005200041617047C16070474FF480320A43826175
:100530008161826182698269704702460020434B73
:1005400018684FF68073184040EA021008433F4B8A
:10055000186070473E49C8617047F0B50A460023ED
:1005600000240021002500F00046B6F1004F02D122
:10057000364EF16901E0354E7168C0F3034583B230
:1005800000F44016B6F5401F08D121F070612F4EDF
:10059000766826F070662D4F7E6012E000F48016BB
:1005A000B6F5801F06D1032606FA05F4A14341F0F3
:1005B000706106E0460D360103FA06F6B14341F0DC
:1005C000706122B1460D360103FA06F6314300F0A0
:1005D0000046B6F1004F02D11C4EF16101E01B4E06
:1005E0007160F0BD30B500228B071C0F0F2303FA9A
:1005F00004F2164B08338C1053F824309343134CF9
:1006000008348D1044F8253023468C1053F82430DC
:100610008C07240F00FA04F423430C4C08348D108B
:1006200044F8253030BD0A49DC31086070470000CD
:1006300000080140000C014000100140001401407E
:1006400000180140001C0140002001400000014052
:1006500000002042DF48006840F00100DD490860EA
:1006600008464068DC490840DA49486008460068A6
:10067000DA490840D74908600846006820F480201D
:1006800008600846406820F4FE0048604FF41F00F0
:1006900088607047CF49096821F48031CD4A1160E4
:1006A0001146096821F480211160B0F5803F03D024
:1006B000B0F5802F0ED106E0C649096841F48031BB
:1006C000C44A116007E0C349096841F4A021C14A46
:1006D000116000E000BF00BF704710B50146002266
:1006E000002300204A11012A02D1BA4C236806E0F7
:1006F000022A02D1B74C236A01E0B64C636A01F0CA
:100700001F02012494401C400CB1012000E0002095
:1007100010BD38B5002000900024002500BF312016
:10072000FFF7DBFF05460098401C00900098B0F5ED
:10073000A06F01D0002DF2D03120FFF7CEFF08B11D
:10074000012400E00024204638BD01460020A14AD3
:10075000106820F0F80040EAC10010607047A0491E
:1007600008607047024600209A4B586820F47C10BD
:1007700042EA01031843974B58607047984908664E
:10078000704701460020934A506820F00300084358
:10079000506070478F48406800F00C007047014679
:1007A00000208C4A506820F0F000084350607047E9
:1007B00001460020874A506820F4E06008435060FA
:1007C000704701460020834A506820F4605040EA98
:1007D000C1005060704729B17E4A527A02437D4B76
:1007E0005A7204E07B4A527A82437A4B5A727047BB
:1007F0007B49D8310860704701460020754A50682F
:1008000020F440400843506070470021714A203274
:100810001170704A82F82010012802D004280AD1F1
:1008200004E001216B4A2032117005E00521694A7C
:100830002032117000E000BF00BF704769490860B6
:1008400070476449096A0143624A11627047654909
:1008500044390860704730B500210022002400238D
:100860005C4D6D6805F00C0121B1042905D0082903
:1008700023D105E05C4D056022E05B4D05601FE083
:10088000544D6D6805F47012524D6D6805F4803456
:10089000022505EB92421CB9544D554305600BE00F
:1008A0004C4D6D6805F400351DB1504D5543056044
:1008B00002E04D4D5543056002E04B4D056000BF21
:1008C00000BF444D6D6805F0F0010909484D6B5CAF
:1008D0000568DD4045603F4D6D6805F4E061090A3B
:1008E000434D6B5C4568DD4085603A4D6D6805F4AD
:1008F0006051C90A3E4D6B5C4568DD40C560354DB1
:100900006D6805F44041890B3A4D6B5CC568B5FBD9
:10091000F3F5056130BD29B12E4A526902432D4BD2
:100920005A6104E02B4A526982432A4B5A6170474C
:1009300029B1284A92690243264B9A6104E0254A6C
:1009400092698243234B9A61704729B1214AD26947
:100950000243204BDA6104E01E4AD26982431D4BF8
:10096000DA61704729B11B4AD2680243194BDA6039
:1009700004E0184AD2688243164BDA60704729B106
:10098000144A12690243134B1A6104E0114A1269B6
:100990008243104B1A617047124940390860704712
:1009A0000F49C86470470B49C87170470948406ACD
:1009B00040F0807007494862704701460020054AB0
:1009C00092680A400AB1012000E000207047014906
:1009D00088727047001002400000FFF8FFFFF6FE2B
:1009E000000042428004424200127A0000093D00A9
:1009F000000000201000002010B50446FE4884428C
:100A000008D10121C014FFF7ADFF0021E014FFF76A
:100A1000A9FFC4E0B4F1804F08D101210846FFF7D7
:100A2000AEFF00210120FFF7AAFFB8E0F34884429F
:100A300008D101210220FFF7A2FF00210220FFF7C9
:100A40009EFFACE0EE48844208D101210420FFF76C
:100A500096FF00210420FFF792FFA0E0E9488442BE
:100A600008D101210820FFF78AFF00210820FFF7A5
:100A700086FF94E0E448844208D101211020FFF76A
:100A80007EFF00211020FFF77AFF88E0DF488442D4
:100A900008D101212020FFF772FF00212020FFF75D
:100AA0006EFF7CE0DA48844208D101214014FFF750
:100AB00059FF00216014FFF755FF70E0D5488442CC
:100AC00009D10121C804FFF74DFF00214FF4002098
:100AD000FFF748FF63E0D048844209D101210805AF
:100AE000FFF740FF00214FF48010FFF73BFF56E077
:100AF000CA48844209D101214805FFF733FF00218C
:100B00004FF40010FFF72EFF49E0C548844208D19A
:100B100001214020FFF733FF00214020FFF72FFF86
:100B20003DE0C048844208D101218020FFF727FF23
:100B300000218020FFF723FF31E0BB48844208D129
:100B400001218015FFF71BFF0021A015FFF717FFFC
:100B500025E0B648844209D101210804FFF702FFCD
:100B600000214FF48030FFF7FDFE18E0B0488442CA
:100B700009D101214804FFF7F5FE00214FF40030B0
:100B8000FFF7F0FE0BE0AB48844208D10121880456
:100B9000FFF7E8FE00214FF48020FFF7E3FE10BDD1
:100BA00000220288944B98420ED0994B98420BD069
:100BB000B0F1804F08D0914B984205D0904B9842AD
:100BC00002D0904B984204D14FF68F731A404B8855
:100BD0001A438D4B984207D08C4B984204D04FF665
:100BE000FF431A40CB881A4302808B8883850B8889
:100BF0000385814B98420BD0854B984208D08B4B94
:100C0000984205D08A4B984202D08A4B984201D133
:100C10000B7A038601238382704770B5002400227B
:100C20000023058C4FF6FE7635400584028C8388C0
:100C3000048B4FF68F752C40B51E2C400D882C432D
:100C4000751E2A400D892A434D882A436A4DA842C1
:100C50000BD06F4DA84208D0744DA84205D0744DFA
:100C6000A84202D0734DA84213D14FF6F7752A401F
:100C70004D892A434FF6FB752A408D882A434FF64B
:100C8000FF652B404FF6FF552B408D892B43CD89B7
:100C90002B4383800483CD888586028470BD70B524
:100CA000002400220023058C4FF6EF7635400584A2
:100CB000028C8388048B48F6FF752C404FF6FF4565
:100CC0002C400D884FF6FF7606EA05252C434FF69B
:100CD000DF752A400D8906EA05152A434D8806EA84
:100CE00005152A43444DA84202D0494DA8421DD1C2
:100CF0004FF67F752A404D894FF6FF7606EA0515B7
:100D00002A434FF6BF752A408D8806EA05152A4307
:100D10004FF6FF352B404FF2FF752B408D8906EAC9
:100D200085052B43CD8906EA85052B438380048303
:100D3000CD880587028470BD70B500240022002391
:100D4000058C4FF6FF6635400584028C8388848BC2
:100D50004FF68F752C404FF6FC752C400D882C43B8
:100D60004FF6FF552A400D894FF6FF7606EA052516
:100D70002A434D8806EA05252A431F4DA84202D082
:100D8000234DA8421DD14FF2FF752A404D894FF6E1
:100D9000FF7606EA05252A434FF6FF352A408D885F
:100DA00006EA05252A434EF6FF752B404DF6FF75E2
:100DB0002B408D8906EA05152B43CD8906EA0515DA
:100DC0002B4383808483CD888587028470BD70B572
:100DD000002200230024058C4EF6FF763540058462
:100DE000038C8488828B48F6FF752A404FF6FF45B6
:100DF0002A400D8820E00000002C01400004004043
:100E000000080040000C00400010004000140040AA
:100E100000340140004C01400050014000540140AA
:100E200000180040001C004000200040004001402D
:100E300000440140004801404FF6FF7606EA0525D0
:100E40002A434DF6FF752B400D8906EA05352B43E5
:100E50004D8806EA05352B43FA4DA84202D0FA4DDB
:100E6000A84208D14BF6FF752C408D894FF6FF76CE
:100E700006EA85152C4384808283CD88A0F84050F3
:100E8000038470BD828B4FF2FF331A408283828BC2
:100E90004FF6FF7303EA01231A4382837047F0B5CC
:100EA0000C461546002200210026078C4EF6FF7CDA
:100EB00007EA0C070784828B018C4FF6FF7707EA5D
:100EC000043640F6FF473A404FF6FF7707EA05271A
:100ED0003A434FF6FF7707EA03373A43D94FB84210
:100EE0000ED0D94FB8420BD0B0F1804F08D0D74FB9
:100EF000B84205D0D64FB84202D0D64FB84206D13C
:100F00004DF6FF77394046F48057394305E047F600
:100F1000FF57394044F48057394382830184F0BD40
:100F2000828B4FF6F3731A408283828B0A4382834B
:100F30007047F0B50C461546002200210026078CAC
:100F40004FF6FF6C07EA0C070784828B018C4FF683
:100F5000FF7707EA04264FF60C773A404FF6FF7703
:100F600007EA03172F433A43B64FB8420ED0B64FA5
:100F7000B8420BD0B0F1804F08D0B44FB84205D082
:100F8000B34FB84202D0B34FB84206D14FF6FF5725
:100F9000394046F48077394305E04FF2FF57394036
:100FA00044F48077394382830184F0BD028B4FF291
:100FB000FF331A400283028B4FF6FF7303EA0123CB
:100FC0001A4302837047F0B50C46154600220021F3
:100FD0000026078C4FF6EF7C07EA0C070784028B8C
:100FE000018C4FF6FF7707EA041640F6FF473A40B8
:100FF0004FF6FF7707EA03373A434FF6FF7707EAE2
:1010000005273A438F4FB8420ED08F4FB8420BD0CE
:10101000B0F1804F08D08D4FB84205D08C4FB84208
:1010200002D08C4FB84206D14FF6DF77394046F0F8
:101030001007394305E04FF65F77394044F0100759
:10104000394302830184F0BD028B4FF6F3731A40DB
:101050000283028B0A4302837047F0B50C461546A3
:1010600000220021068C4FF6FE773E400684028B5C
:10107000018C4FF60C7632407E1C06EA03162E4396
:101080003243704EB0420ED06F4EB0420BD0B0F132
:10109000804F08D06D4EB04205D06D4EB04202D0A8
:1010A0006C4EB04206D14FF6FD76314044F0010659
:1010B000314305E04FF6F576314044F00106314307
:1010C00002830184F0BD70B505460C465D4885423B
:1010D0000ED05D4885420BD0B5F1804F08D05B48FB
:1010E000854205D05A48854202D05A48854200D1EF
:1010F00000E000BF208850B92389A2886188284673
:10110000FFF7ABFFE1882846FFF79EFF25E0208828
:1011100004280AD12389A28861882846FFF753FF53
:10112000E1882846FFF742FF17E0208808280AD107
:101130002389A28861882846FFF7FBFEE1882846BC
:10114000FFF7EEFE09E02389A28861882846FFF7B1
:10115000A6FEE1882846FFF795FE70BD2DE9F04117
:1011600005460C4600260127608808B9022600E0E3
:101170000026A088012801D1022700E0012720884D
:10118000A0B92389A28861882846FFF766FFE18815
:101190002846FFF759FF23893A4631462846FFF78C
:1011A00012FFE1882846FFF701FF13E02389A28898
:1011B00061882846FFF707FFE1882846FFF7F6FE1B
:1011C00023893A4631462846FFF747FFE1882846FB
:1011D000FFF73AFFBDE8F0810A884B881A438B88F5
:1011E0001A43CB881A430B891A434B891A438B89BC
:1011F0001A43A0F8442070474FF6FF718180002108
:101200000180C180418001727047002101804180CE
:101210008180C180018141818181C181704700212C
:1012200001804180012181800021C18001817047BE
:101230000021018041808180C180018141818181C3
:1012400070470000002C01400034014000040040C1
:1012500000080040000C004021B1028842F0010269
:10126000028004E002884FF6FE731A400280704745
:1012700031B1B0F8442042F40042A0F8442005E027
:10128000B0F84420C2F30E02A0F8442070471AB10F
:1012900083890B43838102E083898B438381704779
:1012A0008182704741EA0203A0F8483070471AB1C2
:1012B00083890B43838102E083898B438381704759
:1012C00001894FF6F8721140018170470A460021EA
:1012D00001894FF68F73194011430181704730B572
:1012E00004460D4629462046FFF7F0FF208940F0CE
:1012F0000700208130BD2DE9F04104460D46164619
:101300001F46602D06D13B46012231462046FFF79D
:101310005AFE05E03B46012231462046FFF79DFE7E
:1013200029462046FFF7D2FF208940F007002081A0
:10133000BDE8F08130B50C4600210189C9B24FF6F5
:10134000FF7505EA0325154325432943018130BD77
:101350002DE9F04105460E461746984600244346BF
:101360003A4631462846FFF7E5FF2C894FF6F870DC
:10137000044044F007044FF68F70044044F07004BA
:101380002C81BDE8F081F0B504460D4616461F4697
:101390003B46324629462046FFF7CCFF208940F4E1
:1013A00080402081F0BD0185828270470A4600217D
:1013B00001884FF68F731940114301807047F0B5D3
:1013C0000C4615461E460021002200230189028B8F
:1013D000038C4FF6F877394021434FF6FC473A40EB
:1013E00040F201173A434FF6DD773B404FF6FF7767
:1013F00007EA06172F433B43018102830384F0BDB4
:101400000A460021018B4FF68F7319401143018367
:1014100070470A460021018B48F6FF7319404FF6CA
:10142000FF7303EA02231943018370470A46002130
:10143000818B4FF68F7319401143818370470A46A1
:101440000021818B48F6FF7319404FF6FF7303EAC2
:10145000022319438183704721B1028842F0800240
:10146000028004E002884FF67F731A4002807047C2
:1014700021B1828842F00402828004E082884FF623
:10148000FB731A408280704721B1828842F00802C3
:10149000828004E082884FF6F7731A40828070479A
:1014A00021B1828842F00102828004E082884FF6F6
:1014B000FE731A40828070470A460021018B4FF666
:1014C000F77319401143018370470A460021018BCD
:1014D0004FF2FF7319404FF6FF7303EA02231943DB
:1014E000018370470A460021818B4FF6F77319403C
:1014F0001143818370470A460021818B4FF2FF73AD
:1015000019404FF6FF7303EA0223194381837047A2
:101510000A460021018B4FF6FB73194011430183EA
:1015200070470A460021018B4FF6FF3319404FF6F2
:10153000FF7303EA02231943018370470A4600211F
:10154000818B4FF6FB7319401143818370470A4624
:101550000021818B4FF6FF3319404FF6FF7303EAEA
:1015600002231943818370470A460021018B4FF6FD
:101570007F7319401143018370470A460021018B94
:10158000C1F30E014FF6FF7303EA022319430183EF
:1015900070470A460021818B4FF67F731940114333
:1015A000818370470A460021818BC1F30E014FF6FB
:1015B000FF7303EA02231943818370470A4600211F
:1015C000018C4FF6FD7319401143018470470A46A0
:1015D0000021018C4FF6F7731940114301847047C5
:1015E0000A460021018C4FF6DF7319404FF6FF7356
:1015F00003EA02131943018470470A460021018C53
:101600004FF67F7319404FF6FF7303EA0213194335
:10161000018470470A460021018C4FF6FF531940A0
:101620004FF6FF7303EA02231943018470470A4609
:101630000021018C4FF2FF7319404FF6FF7303EA4C
:1016400002231943018470470A460021018C4DF69C
:10165000FF7319404FF6FF7303EA02331943018405
:10166000704730B5002301248C40A3B2048C9C4306
:101670000484048C02FA01F5ADB22C43048430BD1D
:1016800030B5002304248C40A3B2048C9C43048412
:10169000048C02FA01F5ADB22C43048430BD70B560
:1016A0000346002000241846183001258D40ACB2B6
:1016B0001D8CA5431D8409B1082909D100EB6100E7
:1016C000056825F0700505600568154305600EE0A6
:1016D0000D1FC5F34E052844056825F4E045056057
:1016E00005684FF6FF7606EA02263543056070BDB1
:1016F00021B1028842F00202028004E002884FF623
:10170000FD731A400280704721B1028842F0040242
:10171000028004E002884FF6FB731A400280704793
:1017200021B1828842F08002828004E082884FF6F4
:101730007F731A408280704702884FF6F7731A4011
:10174000028002880A430280704782884FF68F73B6
:101750001A40828082880A438280704702894FF64D
:10176000F8731A40028102890A4302817047028994
:101770004FF67F731A40028102890A430281704743
:1017800081847047818570478186704701877047E3
:1017900081877047A0F84010704702884FF6FF43DA
:1017A0001A40028002880A43028070470146888EF0
:1017B00070470146088F70470146888F7047014681
:1017C000B1F8400070470146888C70470146088D8B
:1017D000704702460020138A0B400BB1012000E045
:1017E00000207047CA430282704730B5024600208D
:1017F00000230024158A05EA0103958905EA0104FE
:1018000013B10CB1012000E0002030BDCA430282B8
:101810007047000010B50446FB48844209D10121FD
:101820008803FFF79FF800214FF48040FFF79AF8F4
:1018300032E0F648844209D101214804FFF79FF8BD
:1018400000214FF40030FFF79AF825E0F048844279
:1018500009D101218804FFF792F800214FF480207C
:10186000FFF78DF818E0EB48844209D10121C80444
:10187000FFF785F800214FF40020FFF780F80BE018
:10188000E548844208D101210805FFF778F80021D6
:101890004FF48010FFF773F810BD2DE9F04786B0C4
:1018A00005460E460024A24600BFA1460027B08987
:1018B00000B100BF2F462C8A4CF6FF700440F08820
:1018C00004432C82AC894EF6F3100440B088318971
:1018D0000843718908430443AC81AC8A4FF6FF404A
:1018E0000440B0890443AC8201A8FEF7B4FFC648A7
:1018F000874202D1DDF810A001E0DDF80CA0A88934
:1019000000F4004040B10AEBCA0000EB0A10316855
:101910004900B0FBF1F807E00AEBCA0000EB0A103F
:1019200031688900B0FBF1F86420B8FBF0F00401E5
:101930002009642101FB1089A88900F4004040B10E
:10194000322000EBC900B0FBF1F000F007000443C7
:1019500008E0322000EB09106421B0FBF1F000F048
:101960000F0004432C8106B0BDE8F0874FF41651F8
:10197000016000218180C18001810C214181002111
:101980008181704710B502460020108A4FF2FF0394
:1019900018400B884C8823438C882343CC882343EE
:1019A0001843108210BD0021018041808180C180D8
:1019B000704721B1828942F40052828104E0828919
:1019C0004DF6FF731A4082817047F0B5034600243C
:1019D00000260025002040F66A17B94200D100BF5A
:1019E0001846C1F3421401F01F06012707FA06F555
:1019F000012C01D10C3004E0022C01D1103000E0A8
:101A000014301AB107682F43076002E00768AF433C
:101A10000760F0BD1AB1838A0B43838202E0838A98
:101A20008B4383827047028A4FF6F0731A4002821A
:101A3000028A0A430282704782894FF2FF731A407A
:101A4000828182890A438281704721B1828942F072
:101A50000202828104E082894FF6FD731A4082817E
:101A60007047028A4FF6DF731A400282028A0A43E5
:101A70000282704721B1028A42F48042028204E06D
:101A8000028A4BF6FF731A4002827047C1F30802C4
:101A90008280704701468888C0F3080070478189BA
:101AA00041F0010181817047028BD2B20283028B27
:101AB00042EA012202837047028B02F47F420283D2
:101AC000028B0A430283704721B1828A42F02002CE
:101AD000828204E0828A4FF6DF731A408282704766
:101AE00021B1828A42F01002828204E0828A4FF69B
:101AF000EF731A408282704721B1828A42F0080255
:101B0000828204E0828A4FF6F7731A40828270471D
:101B100021B1828942F40042828103E08289C2F3CA
:101B20000E028281704721B1828A42F40062828271
:101B300004E0828A4FF2FF731A4082827047828AE1
:101B40004FF6FB731A408282828A0A438282704770
:101B500021B1828A42F00202828204E0828A4FF638
:101B6000FD731A408282704702460020B1F5007F63
:101B700000D100BF13880B400BB1012000E0002012
:101B8000704701F40072B2F5007F00D100BFCA4374
:101B90000280704770B50246002400230025002013
:101BA00040F66A16B14200D100BFC1F3421501F000
:101BB0001F03012606FA03F3012D02D19689334053
:101BC00006E0022D02D1168A334001E0968A3340A6
:101BD0000C12012606FA04F41688344013B10CB135
:101BE000012000E0002070BD10B50022002340F667
:101BF0006A14A14200D100BF0A1201249440A3B28A
:101C0000DC43048010BD0000003801400044004067
:101C100000480040004C0040005000400CB500203F
:101C2000019000906C48006840F480306A49086078
:101C300000BF6948006800F4003000900198401C23
:101C40000190009818B90198B0F5A06FF1D16248E1
:101C5000006800F4003010B10120009001E0002085
:101C600000900098012843D15C48006840F01000C3
:101C70005A4908600846006820F0030008600846DA
:101C8000006840F0020008605348406852494860CC
:101C90000846406848600846406840F480604860F4
:101CA0000846406820F47C1048600846406840F4CC
:101CB000E81048600846006840F08070086000BF87
:101CC0004548006800F000700028F9D0424840689C
:101CD00020F00300404948600846406840F0020098
:101CE000486000BF3C48406800F00C000828F9D16B
:101CF0000CBD10B5FFF792FF10BD10B53648006857
:101D000040F0010034490860084640683449084002
:101D10003149486008460068324908402E49086049
:101D20000846006820F4802008600846406820F4D7
:101D3000FE0048604FF41F008860FFF7DAFF4FF0A5
:101D400000602949086010BD10B500210020002264
:101D5000214B5B6803F00C0121B1042906D008294E
:101D600028D107E0214B224C236027E01F4B204C59
:101D7000236023E0184B5B6803F47010164B5B681C
:101D800003F48032022303EB904022B9194B434302
:101D9000174C23600DE0104B5B6803F4003323B154
:101DA000144B4343124C236003E0104B4343104C4D
:101DB000236003E00D4B0E4C236000BF00BF064BB9
:101DC0005B68C3F303130C4CE15C094B1B68CB400D
:101DD000074C236010BD00000010024000200240AC
:101DE0000000FFF8FFFFF6FE08ED00E000127A00A9
:101DF0001400002000093D0018000020014605E005
:101E0000002001E0421CD0B20A28FBDB0A1EA1F12F
:101E10000101F5D1704710B5044603E04FF47A7024
:101E2000FFF7ECFF201EA4F10104F7D110BD7047AD
:101E300008B50720009002E00098401E009000982E
:101E40000028F9D108BD10B54FF40070E6490860CC
:101E500040100860FFF7ECFFE3480838006808B955
:101E6000012000E0002000F4007008B1002010BD47
:101E70004FF40070DC49091D0860FFF7D9FFDA480C
:101E80000838006800F4007008B10020EFE74FF454
:101E90000070D549091D0860FFF7CAFF0120E6E779
:101EA00010B54FF48070D049091D0860FFF7C0FFDE
:101EB0004FF40070CC49091D0860FFF7B9FF4FF4DB
:101EC0008070C9490860FFF7B3FF4FF40070C6493E
:101ED0000860FFF7ADFF10BD10B54FF48070C24928
:101EE000091D0860FFF7A4FF4FF40070BE49091DEB
:101EF0000860FFF79DFF4FF48070BB490860FFF753
:101F000097FF4FF48070B849091D0860FFF790FFF4
:101F100010BD10B54FF48070B349091D0860FFF77C
:101F200087FF4FF40070B0490860FFF781FF4FF45E
:101F30008070AD490860FFF77BFF4FF48070AA49BD
:101F4000091D0860FFF774FF10BD10B54FF48070D5
:101F5000A549091D0860FFF76BFF4FF40070A24907
:101F60000860FFF765FF4FF480709F490860FFF736
:101F70005FFF9D480838006800F4007030B14FF4EE
:101F800080709949091D0860002010BD4FF48070D1
:101F90009549091D08600120F7E770B5044608253A
:101FA0001DE04FF480709049091D0860FFF740FF65
:101FB00004F0800020B14FF400708B49086004E009
:101FC0004FF400708849091D08606006040EFFF791
:101FD0002FFF4FF4807084490860FFF729FF281E07
:101FE000A5F10101CDB2DCD14FF480707E49091D0D
:101FF000086070BD70B508250024A8017A49086002
:1020000016E06006040E4FF480707749091D0860E1
:10201000FFF70EFF4FF4807073490860FFF708FF69
:1020200071480838006800F4007008B144F00104F9
:10203000281EA5F10101CDB2E3D14FF480706A49A9
:10204000091D0860204670BD08B501210820FEF773
:102050006FFC4FF44070ADF8000002208DF80200D4
:1020600014208DF8030069465F481038FEF7A4F984
:1020700008BD2DE9F04105460E4617469846FFF784
:10208000E2FE10B90020BDE8F081002141EA4501DF
:10209000C8B2FFF782FFFFF758FF18B9FFF700FF3C
:1020A0000020F0E73046FFF778FFFFF74EFF0024EF
:1020B0000BE018F80400FFF770FFFFF746FF18B9B0
:1020C000FFF7EEFE0020DEE7641CBC42F1DBFFF709
:1020D000E7FE0120D7E72DE9F04104460D461646FC
:1020E0001F463B46324629462046FFF7C2FF10B145
:1020F0000020BDE8F0814FF0FF30FAE72DE9F04114
:1021000005460F4614461E46FFF79DFE10B90020F7
:10211000BDE8F081002141EA4501C8B2FFF73DFF6B
:10212000FFF713FF18B9FFF7BBFE0020F0E73846B2
:10213000FFF733FFFFF709FFFFF785FE012101EBF2
:102140004501C8B2FFF729FFFFF7FFFE0CE0FFF7DC
:1021500051FF3070012C02D1FFF7DBFE01E0FFF7E9
:10216000BBFE761C601EC4B2002CF0D1FFF798FEB7
:102170000120CDE72DE9F04104460D4616461F46E5
:102180003B46324629462046FFF7B8FF10B10020F3
:10219000BDE8F0814FF0FF30FAE770B504460D4618
:1021A0001646FFF750FE08B9002070BD002141EA35
:1021B0004401C8B2FFF7F1FEFFF7C7FE18B9FFF7F9
:1021C0006FFE0020F1E72846FFF7E7FEFFF7BDFEB0
:1021D0003046FFF7E2FEFFF7B8FEFFF761FE012091
:1021E000E3E7002070470000100C014008B5012112
:1021F0001120FEF79DFB01210B48FEF7AEF94FF4CD
:10220000C040ADF8000003208DF8020010208DF8CA
:10221000030069460548FEF7CFF84FF4C041034874
:10222000FEF777F908BD0000000230000010014001
:10223000FFF763FD41F61F4141F2883002F040F89C
:1022400002F07AF801F0AAFE01F0F5FE00F0C4F801
:1022500000F02AF8FFF7CAFF00F0D4F800F03BF9CD
:10226000FFF7F2FE0A2000F007FE00F047FA00F048
:10227000ABFD00F011FE4FF0E020006940F00100DE
:102280004FF0E02108610CE000F0A0FA054800786A
:1022900018B101F09FFC01F0AAFC01F0A7FB01F0CE
:1022A00066FBF1E76800002008B501210820FEF771
:1022B0003FFB4FF47040ADF8000010208DF8030094
:1022C00003208DF802006946FE48FEF775F84FF4CA
:1022D0007041FC48FEF71DF908BD08B5012108460C
:1022E000FEF733FB01210420FEF722FB0C20ADF8A2
:1022F000000018208DF8030003208DF802006946C5
:10230000F148FEF759F808BD30B587B00025002424
:102310004FF47A70ADF814000020ADF81000ADF85D
:102320001600ADF8120004A94FF08040FEF738FC0B
:102330006020ADF800000120ADF80200ADF80650B5
:102340000020ADF8080069464FF08040FEF7F4FC2D
:102350000821C806FFF7C6F80120ADF80200ADF865
:10236000064069468007FEF732FD0821C806FFF7E0
:10237000C2F801218807FFF76FF801218807FEF7EF
:102380006BFF07B030BD2DE9FF4104460D462746DF
:102390002E466020ADF800000120ADF80200ADF837
:1023A00006700020ADF8080069464FF08040FEF747
:1023B000C3FC0821C806FFF795F80120ADF802001C
:1023C000ADF8066069468007FEF701FD0821C806E2
:1023D000FFF791F8BDE8FF8110B5FFF77EFFFFF72B
:1023E00093FF10BDB9490888098821F00101B74A57
:1023F00011807047B6490888098821F00101B44A64
:102400001180704700B589B001210220FEF79DFAC6
:1024100001210420FEF78CFA01A8FEF758F8C0202D
:10242000ADF8040004208DF8070003208DF80600A5
:1024300001A9A548FDF7C0FF4FF4A060FDF760FEBD
:102440001D208DF8080001208DF8090003208DF86B
:102450000A0001208DF80B0002A8FDF756FE9B48EC
:102460001038FEF7C9FA06A8FEF7C6FE0020ADF840
:1024700018004FF6FF70ADF81C000020ADF81E00EC
:10248000ADF81A0006A991481038FEF789FB0A2317
:102490001A4603218D481038FEF791FF03A8FEF776
:1024A000BEFE0620ADF8140003A988481038FEF7D8
:1024B0000AFE012185481038FFF794F901221146E0
:1024C00082481038FEF7E3FE012180481038FEF7FD
:1024D000C3FE09B000BD00B589B001210420FEF79C
:1024E00034FA01210820FEF723FA01A8FDF7EFFFD7
:1024F000C020ADF8040004208DF8070003208DF8FB
:10250000060001A96F48FDF757FF4FF4A060FDF7E3
:10251000F7FD1E208DF8080001208DF8090003202A
:102520008DF80A0001208DF80B0002A8FDF7EDFDE3
:1025300067481038FEF760FA06A8FEF75DFE002037
:10254000ADF818004FF6FF70ADF81C000020ADF894
:102550001E00ADF81A0006A95D481038FEF720FBF2
:102560000A231A4603215A481038FEF728FF03A809
:10257000FEF755FE0620ADF8140003A954481038A4
:10258000FEF7A1FD012152481038FFF72BF9012277
:1025900011464F481038FEF77AFE01214C4810389A
:1025A000FEF75AFE09B000BD00B585B00121042038
:1025B000FEF7BEF901210220FEF7C7F98020ADF831
:1025C000100004208DF8130003208DF8120004A9D8
:1025D0003D48FDF7F1FE4FF4A060FDF791FD1D2091
:1025E0008DF8000001208DF8010003208DF8020015
:1025F00001208DF803006846FDF787FD3348103849
:10260000FEF7FAF94FF6FF70ADF808000020ADF8BC
:102610000400ADF80A00ADF8060001A92B481038F7
:10262000FEF7BEFA00231A46602128481038FEF74C
:1026300062FE002125481038FFF7A2F80121234847
:102640001038FEF709FE05B000BD00B585B00121C8
:102650000820FEF76DF901210420FEF776F98020AD
:10266000ADF8100004208DF8130003208DF812003F
:1026700004A91448FDF7A0FE4FF4A060FDF740FD4B
:102680001E208DF8000001208DF8010003208DF838
:10269000020001208DF803006846FDF736FD0C4866
:1026A0001038FEF7A9F94FF6FF70ADF808000020CA
:1026B000ADF80400ADF80A00ADF8060001A9044821
:1026C000103807E0000C01400008014010040040F1
:1026D00010080040FEF764FA00231A4660210648FD
:1026E000FEF709FE00210448FFF74AF801210248DD
:1026F000FEF7B2FD05B000BD0008004070B5002433
:1027000002F00DFB0446002C5FD179A001F0C3FD5F
:10271000782001F066FF18B97EA001F0BCFD02E050
:1027200084A001F0B8FD782002F048F918B98CA017
:1027300001F0B1FD02E093A001F0ADFD642002F0D4
:102740001EFA18B99BA001F0A6FD02E0A3A001F0BB
:10275000A2FD03F0D5FD18B9A9A001F09CFD02E08F
:10276000B4A001F098FDC24804F0A6FC054603F0B1
:10277000D1FD18B9BFA001F08EFD02E0C7A001F0A5
:102780008AFD40F2731004F006FA18B9CFA001F0E8
:1027900082FD02E0D6A001F07EFD642003F074FF0C
:1027A00018B9DFA001F077FD02E0E6A001F073FDAB
:1027B00004F096FC012003F0E9FA18B9ECA001F04E
:1027C0006AFD02E0F3A001F066FD70BD2DE9F04F57
:1027D00089B0FB48FB49FC4BFC4ACDE90010FC49A1
:1027E000FC4804F037FBF748008800F480700028AC
:1027F0007DD0F649086804F0ACFF04464FF09D41D7
:1028000004F0E1FDF4490860F049486804F0A1FFD4
:1028100004464FF09D4104F0D6FDF0490860EB49B5
:10282000886804F096FF04464FF09D4104F0CBFD0C
:10283000EB490860E549C86804F08BFF04464FF097
:102840009D4104F0C0FDE7490860E34801684FF08E
:10285000804004F086FD0690E1480168069804F087
:1028600080FD8246DD4801684FF0404004F079FD6C
:102870000690DC480168069804F073FD83465146D3
:1028800004F017FD079004F0B0FF064606F02EF99D
:1028900080464FF06632D44B04F07AFE044604F0D2
:1028A000CFFFD2490860CE4801684FF0804004F065
:1028B00058FD0390CA480168039804F052FD82460F
:1028C000C64801684FF0404004F04BFD0390C348F8
:1028D0000168039804F045FD8346514604F03BFD32
:1028E00081464FF07E5104F0E4FC044680E106E2AC
:1028F0006D707520696E697469616C697A6174695B
:102900006F6E20636F6D706C6574652E2E2E2E2E8B
:102910002E0A20006D70755F7365745F73656E734A
:102920006F7220636F6D706C657465202E2E2E2E75
:102930002E2E0A006D70755F7365745F73656E731C
:102940006F7220636F6D65206163726F73732065B2
:1029500072726F72202E2E2E2E2E2E0A0000000074
:102960006D70755F636F6E6669677572655F6669C6
:10297000666F20636F6D706C657465202E2E2E2E31
:102980002E2E0A006D70755F636F6E6669677572D3
:10299000655F6669666F20636F6D65206163726F46
:1029A0007373206572726F72202E2E2E2E2E2E0AB9
:1029B000000000006D70755F7365745F73616D700A
:1029C0006C655F7261746520636F6D706C657465B2
:1029D000202E2E2E2E2E2E0A000000006D70755F08
:1029E0007365745F73616D706C655F72617465208F
:1029F0006572726F72202E2E2E2E2E2E0A0000006F
:102A0000646D705F6C6F61645F6D6F74696F6E5F32
:102A10006472697665725F6669726D77617265204E
:102A2000636F6D706C657465202E2E2E2E2E2E0A0F
:102A300000000000646D705F6C6F61645F6D6F74A7
:102A4000696F6E5F6472697665725F6669726D77D1
:102A500061726520636F6D65206163726F737320AF
:102A60006572726F72202E2E2E2E2E2E0A000000FE
:102A700028000020646D705F7365745F6F72696514
:102A80006E746174696F6E20636F6D706C657465D0
:102A9000202E2E2E2E2E2E0A00000000646D705F58
:102AA0007365745F6F7269656E746174696F6E20AF
:102AB000636F6D65206163726F7373206572726FEF
:102AC00072202E2E2E2E2E2E0A000000646D705FB6
:102AD000656E61626C655F666561747572652063C1
:102AE0006F6D706C657465202E2E2E2E2E2E0A00B2
:102AF000646D705F656E61626C655F66656174755B
:102B0000726520636F6D65206163726F73732065FA
:102B100072726F72202E2E2E2E2E2E0A00000000B2
:102B2000646D705F7365745F6669666F5F72617410
:102B30006520636F6D706C657465202E2E2E2E2EB1
:102B40002E0A0000646D705F7365745F6669666F5E
:102B50005F7261746520636F6D65206163726F736E
:102B600073206572726F72202E2E2E2E2E2E0A006A
:102B70006D70755F7365745F646D705F737461749D
:102B80006520636F6D706C657465202E2E2E2E2E61
:102B90002E0A00006D70755F7365745F646D705F01
:102BA000737461746520636F6D65206163726F7308
:102BB00073206572726F72202E2E2E2E2E2E0A001A
:102BC000620000206000002050000020140200205D
:102BD0005A0000205400002034000020380000205B
:102BE0003C0000204000002066A64C40440000202D
:102BF00004F0FBFDCDE90401424801684FF080403C
:102C000004F0AFFB834640480168584604F0A9FB36
:102C100081463E4801684FF0804004F0A2FB8346A5
:102C20003B480168584604F09CFB8246494604F044
:102C300040FB044604F0D9FD0746DDE9042306F015
:102C40009DF94FF06632334BCDE9060104F0A0FC4C
:102C5000054604F0F5FD304908602D48016800681C
:102C600004F07FFB039029480168006804F079FBB9
:102C7000029025480168006804F073FB83462148F0
:102C80000168006804F06DFB5946019004F011FBE7
:102C90008246029904F05FFB8146039904F05BFBD6
:102CA000044604F0A2FDCDE9040119480168154865
:102CB000006804F056FB8246144801681248006818
:102CC00004F04FFB8346514604F0F3FA81464FF07F
:102CD000804104F046FB044604F087FD0746DDE929
:102CE000042306F04BF94FF066320A4BCDE906019A
:102CF00004F04EFC054604F0A3FD0849086009B045
:102D0000BDE8F08F34000020380000203C00002097
:102D10004000002066A64C40480000204C000020E7
:102D2000704700BFFEE700BFFEE700BFFEE700BF41
:102D3000FEE770477047704710B51D480078401C8B
:102D40001B4908701B480078401C1A4908701A4833
:102D50000078401C1849087000F078FA174800788D
:102D6000401C1649087016480078401C1449087029
:102D700014480078401C1349087000F013F900F063
:102D80000DFA0C480078022806DB01F046FB00F043
:102D9000F6FB00200749087007480078082806DB82
:102DA00000F0E8FA0020044908700449087010BDDA
:102DB000C3000020C8000020C4000020C50000207F
:102DC000C6000020C700002030B527480068C82290
:102DD000B0FBF2F1B1F1807F01D301201DE021F0C1
:102DE0007F40401E4FF0E022506150170F22002814
:102DF00007DA13071D0E1D4B00F00F04241F1D558D
:102E000003E013071C0E1A4B1C5400BF00204FF0A8
:102E1000E022906107201061002008B100BFFEE7AA
:102E20004FF0E020006920F001004FF0E021086140
:102E300030BD01B50F49009808604FF0E0200069EF
:102E400040F001004FF0E021086100BF0948006830
:102E50000028FBD108BD0748006820B1054800687C
:102E6000401E0449086070471400002018ED00E07F
:102E700000E400E064000020002107E042F6E06189
:102E800000BF0A1EA1F1010399B2FAD1021EA0F1FE
:102E9000010398B2F2D170470020FE490880FE4934
:102EA0000880FE490860FE490860FE490860FE4946
:102EB0000860FE490860FE490860FE490860FE4956
:102EC0000860FE490860FE490860FE490860FE4946
:102ED0000860FE490860FE490860FE490860FE4936
:102EE0000860FE490870FE490870FE490870FE49F6
:102EF000086070472DE9F041FC48006804F075FC5B
:102F00000446FB48D0E900633246204604F080FCCA
:102F100007D0F748D0E90021104604F091FCF349AE
:102F20000860F448006804F060FC0446F048D0E90A
:102F300002633246204604F06BFC07D0EC49D1E92D
:102F40000221104604F07CFCEA490860EA48006867
:102F500004F04BFC0446E648D0E9046332462046C0
:102F600004F056FC07D0E248D0E90421104604F0F2
:102F700067FCE1490860E148006804F036FC04465B
:102F8000DB48D0E906633246204604F041FC07D016
:102F9000D748D0E90621104604F052FCD749086012
:102FA000BDE8F0812DE9F041D5480068012810D135
:102FB0000020CE490860D348006804F0D8FB0646DC
:102FC0000022D14B04F0E4FA044604F039FCC7496E
:102FD0000860CB480068022812D10020C54908606B
:102FE000CA490968A1F1400004F0C1FB064600226D
:102FF000C74B04F0CDFA044604F022FCBD4908603A
:10300000C449B1F9040004F0A4FBC3490860C349F2
:10301000B1F9040004F09DFBC14908604FF07E51F6
:10302000C048006804F097F9A1490860BB49B1F9AC
:10303000000004F08EFB0646AE480168304604F0FE
:1030400090F90446A94801689948006804F089F994
:103050000546214604F02DF998490860BDE8F08145
:103060002DE9F04104460D46002C0CDA4FF4804166
:10307000AD48FDF74EFA4FF40041AB48FDF74BFA6F
:10308000604204B20AE04FF40041A748FDF741FA5C
:103090004FF48041A448FDF73EFA00BF002D0CDA42
:1030A0004FF40051A048FDF734FA4FF480519E4888
:1030B000FDF731FA684205B20AE04FF480519A48B0
:1030C000FDF727FA4FF400519748FDF724FA00BFA7
:1030D000AFB2A6B231464FF08040FEF759FB3946F9
:1030E0004FF08040FEF756FB90499148006804F08D
:1030F000CDFB23D38F498E48006804F0BDFB02D27C
:103100004FF0010801E04FF000080021714800680D
:1031100004F0B2FB01D1012000E0002008EA000821
:1031200000216D48006804F0A7FB01D1012000E0F8
:10313000002008EA0008B8F1000F0DD000214FF080
:103140008040FEF725FB00214FF08040FEF722FB78
:1031500001207949086002E000207749086077493A
:103160005348006804F092FB05D375495048006845
:1031700004F082FB0DD200214FF08040FEF708FBE7
:1031800000214FF08040FEF705FB01206A490860EE
:1031900002E0002068490860BDE8F08170B5694828
:1031A00001684648006804F084F804464148016814
:1031B000204604F07EF843490860624801683F48B1
:1031C000006804F076F804463A480168204604F0A6
:1031D000C2F83B4908603B48006804F0D9FA00B2E5
:1031E000B0F57A7F02DD58483649086035480068F6
:1031F00004F0CEFA00B210F57A7F02DA5348314972
:1032000008602F48006804F0C3FA00B2B0F57A7F76
:1032100002DD4D482A4908602948006804F0B8FAE0
:1032200000B210F57A7F02DA484825490860244840
:10323000006804F0ADFA04B22248006804F0A8FA6D
:1032400005B221462846FFF70BFF70BD70B5404818
:10325000FEF7B9FA04463F48FEF7B5FA05463E4880
:1032600004603E48056000213948FEF789FA0021D4
:103270003848FEF785FA20B207490880684200B254
:1032800004490880064800680349B1F90010084461
:10329000034965E00E0100200C0100201C01002004
:1032A0001801002024010020200100202801002016
:1032B000E800002044010020D0000020DC000020B5
:1032C000E4000020E00000204001002084010020F4
:1032D000800100204C01002048010020C300002094
:1032E000C4000020C500002038010020F8000020A4
:1032F00078910008FC00002000010020040100205B
:1033000068010020580100200080FB3F5C01002084
:103310000000C43F5A000020780100205400002023
:103320007C01002048000020000C014000002041EA
:1033300044000020000020C134010020000034427D
:10334000000034C2D800002000007A4400007AC493
:1033500000040040000800402C0100203001002043
:103360000860F6480068F649B1F900100844F349CE
:10337000086070BD2DE9F05FF2490968EF4A1268F4
:10338000881804F0E6F9F04908600020EB4908606D
:10339000EC490860ED48006804F027FA06464FF053
:1033A0006632EB4B04F0F4F8044604F049FAE749BE
:1033B0000860E548006804F018FA80464FF03332A0
:1033C000E44B04F0E5F804460D46E048006804F0DC
:1033D0000CFA064622462B4604F033F8824604F0E7
:1033E0002FFADA49086008460168DB48006803F0F4
:1033F00060FFD9490860D9480168D748006803F0E0
:1034000058FFD5490860D6480168D348006803F0E2
:1034100050FFD1490860D3480068012801D100203D
:103420000860CD48006804F0B3F941F6583188428D
:1034300002DDCD48C8490860C748006804F0A8F913
:10344000CA49884202DACA48C3490860C9480068C4
:10345000032812D10020C8490860C8490968A1F1B1
:10346000800004F084F906460022C54B04F090F871
:10347000044604F0E5F9C0490860BE480068042825
:1034800012D10020BF490860BF490968A1F1C000FE
:1034900004F06DF906460022BC4B04F079F80446AE
:1034A00004F0CEF9B74908600021AB48006803F08A
:1034B00052FF0646B3480168304603F052FF044607
:1034C0000021A248006803F046FF0646AA480168AA
:1034D000304603F046FF0546214603F0EAFEAC49BC
:1034E0000860BDE8F09F10B500240821A948FEF748
:1034F0003BFB30B10821A748FEF743FBA548FEF788
:10350000C9FA2021A348FEF72FFB002836D040F24D
:103510002551A048FEF768FB9E48001D0088C4B2F4
:10352000242C05D101209C49087000209B4908608B
:1035300099480078012803D199489849096844546A
:103540009548007801280AD1232C08D195490870A4
:1035500000209149087091480068934908608F489D
:103560000068401C8D49086008460068502805DB4B
:1035700000200860884908708A49087010BD2DE94C
:10358000F0418A48006800283ED18948FEF71BF9BF
:1035900000EB800000EB00104400204604F0E7F848
:1035A00005460022834B04F065F8074604F048F90D
:1035B000814908600846006804F017F904460022B3
:1035C0007E4B04F025F903D87D48654908601BE06F
:1035D0007C497948006804F059F901D8012400E0D9
:1035E00000244FF082417448006804F045F901D886
:1035F000012000E0002004401CB1734858490860D5
:1036000002E0002056490860BDE8F0812DE9F84F3E
:103610006E480068012878D16D48D0F800B06D4838
:10362000006800906C48B0F902906C48B0F900A0B6
:1036300061480468484604F08CF806464FF08D4116
:1036400003F0C1FE0546664903F08BFE654908603C
:10365000504604F07EF80646634903F07CFE0546BA
:10366000624903F0B0FE62490860584604F0BDF8B4
:103670000746604A604B03F0FDFF054604F0E0F8A2
:103680008346009804F0B1F805465A4A5A4B03F0B5
:10369000F1FF074604F0D4F800905021574803F09A
:1036A000DDFD564856A1096801600A21554803F01E
:1036B000D5FD554800210160416001810A21534830
:1036C00003F0CCFD524800210160416001810A21D4
:1036D000504803F0C3FD5048002101604160018162
:1036E0004E49584604F0C8F810D84D49584604F0E1
:1036F000CDF80BD8584604F078F805462A460B4614
:1037000048A1404804F0E0FC02E02EE1BDE8F88F5B
:103710004249009804F0B0F80FD84149009804F0ED
:10372000B5F80AD8009804F060F805462A460B461A
:103730003CA1354804F0C8FC79E077E01C0100208A
:103740000E0100201801002020010020240100208B
:103750006666E63F3333D33F280100204001002056
:10376000380100203401002000C0DA45A8E4FFFF42
:1037700000C0DAC5680100200001002060010020BF
:103780000000DE3F04010020640100200000C43F6F
:10379000D800002000480040D8010020D4010020BB
:1037A0002402002068000020DC01002050010020DD
:1037B000002C0140000069403C0100200000104046
:1037C000000096C30000A0400000FA436C010020F6
:1037D000E0000020E40000205A00002054000020F7
:1037E000CDCC1C41780100209A190043000003430E
:1037F0007C01002048E17A14AE470F40C40200204B
:10380000244C5600DC030020E6030020F0030020D7
:10381000FA030020040400200E04002000007A4473
:1038200000007AC425332E32660000006EE7F949A5
:10383000F948006804F02AF812D2F849F6480068FE
:1038400004F01AF80CD2F448006803F0CEFF0546E5
:103850002A460B46AFF23401F14804F035FC00E093
:1038600054E7F049F048006804F010F812D2EF492C
:10387000ED48006804F000F80CD2EB48006803F053
:10388000B4FF05462A460B46AFF26801E84804F04B
:103890001BFC00E03AE70021204603F0F7FF10D8B8
:1038A000E449204603F0E8FF0BD2204603F09DFFD9
:1038B00005462A460B46AFF29401DF4804F004FCAB
:1038C00000E023E70021DD48006803F0DFFF12D8A5
:1038D000D249DA48006803F0CFFF0CD2D74800681D
:1038E00003F083FF05462A460B46AFF2C801D448D1
:1038F00004F0EAFB00E009E7D249D34803F0B9FC41
:10390000D2A1D14803F0B5FCD149CF4803F0B1FCB6
:10391000D0A1CD4803F0ADFCC149CB4803F0A9FCD0
:10392000CDA1C94803F0A5FCC149C74803F0A1FCDB
:10393000CAA1C54803F09DFCBF49C34803F099FCE8
:10394000C8A1C14803F095FCBD49BF4803F091FCF4
:10395000C5A1BD4803F08DFC5021C44803F07EFC96
:103960005022B949C14803F060FC00BFCEE610B553
:10397000BF480068401EBE490860BE480068012874
:1039800007D10846006820B9FFF740FEB74800F0AD
:1039900076FCB748006818B941F28830B44908602D
:1039A00010BD30B503460C4600211AE0585C25785E
:1039B000A84200D014E0002206E0521CA05C8D1842
:1039C0005D5DA84200D005E0A05C18B18818185CC5
:1039D0000028F2D100BFA05C08B9084630BD00BF86
:1039E000491C585C0028E1D1401EF7E710B5A248F9
:1039F0000068072846D2DFE800F0040E26181F30C2
:103A00003B0000209D4908609D4908609D49086071
:103A10009D4908603AE000209A4908608348974928
:103A2000086001209849086030E09848954908608E
:103A300001209549086029E09548924908600120D5
:103A40009149086022E000208E49086075488B4942
:103A5000086001208C49086018E08E4800684042E8
:103A600003F077FE874908600120874908600DE070
:103A70008848006803F06DFE824908600120824991
:103A8000086003E000207D49086000BF00BF10BD52
:103A900070B53221804803F0E1FB7F487FA10968BF
:103AA000016000217E48006803F0F0FE12D87D49D5
:103AB0007B48006803F0E0FE0CD87948006803F00A
:103AC00094FE044622460B46AFF2A821764804F045
:103AD000FBFA03E075A000F0D2FB70BD002177482F
:103AE000006803F0D3FE12D86E497448006803F0F2
:103AF000C3FE0CD87148006803F077FE04462246E6
:103B00000B46AFF2E0216E4804F0DEFA03E067A056
:103B100000F0B5FBE1E700216A48006803F0B6FE5B
:103B200012D860496748006803F0A6FE0CD86548C3
:103B3000006803F05AFE044622460B46AFF21C31E1
:103B4000614804F0C1FA03E058A000F098FBC4E714
:103B500000215E48006803F099FE12D851495B4885
:103B6000006803F089FE0CD85848006803F03DFE59
:103B7000044622460B46AFF25431554804F0A4FAED
:103B800003E04AA000F07BFBA7E74749424803F067
:103B900070FB50A1404803F06CFB49493E4803F0DC
:103BA00068FB4DA13C4803F064FB47493A4803F0E9
:103BB00060FB4AA1384803F05CFB4549364803F0F6
:103BC00058FB29A1344803F054FB334800F057FB5D
:103BD00000BF82E710B542480268521C4149424882
:103BE00003F023FB50213F4803F038FB10BDF0B534
:103BF00089B03D4840783038052879D2DFE800F0B8
:103C00008E037980870001201B490860374800F047
:103C100036FB8EE00000A0C1780100200000A0412A
:103C2000F003002000803BC57C01002000803B4564
:103C3000FA03002000401C4604040020CC000020B1
:103C40000E040020DC030020C40200202C52560089
:103C5000E60300202C4143002C4759002C435342DB
:103C6000000000002C565400230000001403002024
:103C7000700100206C0100206C0000204001002039
:103C8000380100204401002050010020000096C3AC
:103C9000000096438801002091000020244150003C
:103CA000F80000200000C842B403002024476574D7
:103CB0005049444572726F7223000000FC000020DE
:103CC000BE03002000010020C803002004010020E2
:103CD000D20300202C4144002C5650002C564900A1
:103CE000D401002024020020740200207000002073
:103CF0001BE0022095490860954800F0C0FA18E0E2
:103D0000032092490860924800F0B9FA11E00420BB
:103D10008E4908608E4800F0B2FA0AE000208B4914
:103D200008608B4800F0ABFA03E000208749086088
:103D300000BF00BF874803F0A8FA15280BD2002067
:103D4000854908705021834803F088FA83A000F069
:103D500096FA09B0F0BD7F48C078312805D105201A
:103D60007A4908607A4800F08AFA7A48C07832289E
:103D700005D1062075490860754800F080FA75483D
:103D80004079312802D1FFF783FE08E0714840797D
:103D9000322804D1FFF7AEF875A000F070FA6D4834
:103DA000C079312806D101207349086070A000F065
:103DB00066FA09E06748C079322805D100206E49CB
:103DC00008606BA000F05BFA6248407A312857D156
:103DD000142104A803F042FA0020029003900090FE
:103DE000019066A15B48FFF7DCFD0546681C00B941
:103DF000AFE763480068421B5648411904A803F026
:103E000014FA60A104A8FFF7CCFD0446601C00B9B9
:103E10009FE7A21E0DF1120102A803F006FA02A804
:103E200005F06CF9064603F00BFD574908601421B4
:103E300004A803F013FA2819514B1B681A1A4548B5
:103E400028442044411C04A803F0EFF94DA104A824
:103E5000FFF7A7FD0446601C00B97AE7A21E0DF12A
:103E60001201684603F0E1F9684605F047F9064695
:103E700003F0E6FC454908603DA000F000FA00BFF1
:103E80003448C07A312858D1142104A803F0E6F947
:103E9000002002900390009001903DA12D48FFF773
:103EA00080FD0546681C00B953E735480068421B91
:103EB0002848411904A803F0B8F932A104A8FFF773
:103EC00070FD0446601C00B943E7A21E0DF112010B
:103ED00002A803F0AAF902A805F010F9064603F0BB
:103EE000AFFC2C490860142104A803F0B7F9281985
:103EF000234B1B681A1A174828442044411C04A865
:103F000003F093F9AFF2A02104A8FFF74AFD04469D
:103F1000601C00B91DE7A21E0DF11201684603F0F6
:103F200084F9684605F0EAF8064603F089FC1A4968
:103F300008600FA000F0A3F900BF00200649087038
:103F40005021044803F08AF900BF02E76C0000200A
:103F50007000002074020020680000202452656375
:103F6000656976655061636B4572726F72230000FC
:103F7000244F4B23000000006C0100204150000042
:103F8000DC0100202C000000F8000020FC000020D4
:103F900056500000000100200401002000B585B04B
:103FA000012144F20400FCF7C3FC4FF40070ADF8AB
:103FB000100018208DF8130003208DF8120004A9BA
:103FC000BB48FCF7F9F94FF48060ADF8100004200D
:103FD0008DF8130004A9B648FCF7EEF94FF4E13070
:103FE00000900020ADF80400ADF80600ADF8080020
:103FF000ADF80C000C20ADF80A006946AD48FDF79D
:104000004CFC0121AB48FDF7D4FC05B000BD08B560
:104010004FF48060FCF774F827208DF8000004202E
:104020008DF8010001208DF802008DF8030068462C
:10403000FCF76BF808BD00B585B001218804FCF7DA
:1040400084FC01210820FCF773FC4FF48060ADF87C
:10405000100018208DF8130003208DF8120004A919
:104060009548FCF7A9F94FF40060ADF81000042062
:104070008DF8130004A99048FCF79EF9FFF7C7FFDD
:104080004FF4165000900020ADF80400ADF8060083
:10409000ADF80800ADF80C000C20ADF80A00694638
:1040A0008648FDF7FAFB012240F225518348FDF7CF
:1040B0008CFC01218148FDF77CFC05B000BD70B58A
:1040C00004460D46E1B27B48FDF7E0FC00BF40210D
:1040D0007848FDF749FD0128F9D1204670BDF0B5BB
:1040E00003460D461646002729460A2E03D0002017
:1040F00008702846F0BD33B9302001F8010B0020CC
:1041000008702846F6E7002B03DA2D2001F8010B92
:104110005B4242F210720DE093FBF2F404B937B146
:1041200004F1300001F8010B04FB123301270A20CF
:1041300092FBF0F2002AEFDC002008702846D9E755
:104140000FB470B586B006460CA8019073E00B98CA
:1041500000785C281CD10B98401C0B9000786E28CE
:1041600009D072280FD10D213046FDF78FFC0B9836
:10417000401C0B900BE00A213046FDF787FC0B98A2
:10418000401C0B9003E00B98401C0B9000BF4BE0D1
:104190000B980078252840D10B98401C0B90007894
:1041A000642818D0732833D1019810C801900BE00F
:1041B00021783046FDF76AFC00BF40213046FDF70C
:1041C000D3FC0028F9D0641C20780028F0D10B988B
:1041D000401C0B9020E0019820C801900A2202A9FF
:1041E0002846FFF77CFF02AC0BE021783046FDF754
:1041F0004DFC00BF40213046FDF7B6FC0028F9D049
:10420000641C20780028F0D10B98401C0B9003E030
:104210000B98401C0B9000BF06E00B9810F8011B98
:104220000B903046FDF732FC00BF40213046FDF7D1
:104230009BFC0028F9D00B980078002887D106B0A5
:1042400070BC5DF814FB10B5044621461948FDF713
:104250001DFC00BF40211748FDF786FC0128F9D15D
:1042600010BD10B5044621461448FDF70FFC00BFF1
:1042700040211248FDF778FC0128F9D110BD70B536
:1042800005462C4603E02078FFF7EBFF641C2078FE
:104290000028F8D170BD70B505462C4603E02078A3
:1042A000FFF7D1FF641C20780028F8D170BD000012
:1042B0000008014000380140000C01400048004067
:1042C0007FB504460D460121C802FCF731FB41F2DF
:1042D0008830ADF8080041F61F40ADF80400012019
:1042E000ADF80A000020ADF8060001A91148FCF75E
:1042F00057FC012241210F48FCF7C9FF19208DF816
:10430000000003208DF8010000208DF8020001203C
:104310008DF803006846FBF7F8FE7FBD10B501215C
:104320000448FDF762FA18B101210248FDF76EFA60
:1043300010BD0000002C01401FB501213D48FCF7D5
:104340000CF901210920FCF7F3FA0120ADF80C006B
:1043500010208DF80F0003208DF80E0003A93648B9
:10436000FCF72AF80220ADF80C0028208DF80F0089
:1043700003A93148FCF720F801210846FCF732F97F
:104380000220019000208DF8080008208DF8090017
:1043900001208DF80A0001A8FBF72EFF07208DF8F9
:1043A000000003208DF8010001208DF802008DF837
:1043B00003006846FBF7A9FE1FBD10B50220FBF7FE
:1043C00081FF48B300211D48FDF7DAF901211B48A0
:1043D000FCF742FF01201A49086012E01748FDF778
:1043E000F2F90A2807DB00211448FCF735FF00200A
:1043F0001349086005E002210F48FCF770F81049E6
:1044000008600F4800680028E8D100210B48FCF73D
:1044100023FF0220FBF767FF10BD10B501210648FE
:10442000FCF777F80C20FDF7E9FC01210248FCF7C6
:1044300072F810BD00023000000C0140002C014059
:10444000E00100200648804706480047FEE7FEE7F7
:10445000FEE7FEE7FEE7FEE7FEE7FEE7FEE7FEE734
:10446000FB1C0008ED00000838B50446FB4890F836
:104470002400C0B114B10220009001E0002000909F
:10448000F64A1268D17BF54A526810786B460122D1
:10449000FDF721FE10B14FF0FF3038BD9DF8001040
:1044A000EE48417423E0ED48807A10B94FF0FF30B8
:1044B000F3E724B1E948407C08B10020EDE714B1EE
:1044C0000120009001E000200090E44A1268D17BB6
:1044D000E24A526810786B460122FDF7FCFD10B1EC
:1044E0004FF0FF30D9E79DF80010DC484174002000
:1044F000D3E738B5002419E0D8480068C07AA04254
:1045000004D0D6480068407DA04200D10CE0D349D9
:10451000496808786B4601222146FDF72BFE10B151
:104520004FF0FF3038BD00BF601CC4B2CB484068BC
:104530000079A042E0DC0020F4E770B504460D46A7
:10454000C6480068C07AA04204D0C4480068407DD4
:10455000A04202D14FF0FF3070BDC04840680079E2
:10456000A04202DC4FF0FF30F6E7BC49496808780A
:104570002B4601222146FDF7FDFDEDE738B5044647
:10458000B64890F82300A04201D1002038BD14B1F4
:104590003020009001E000200090B048807C20B1E5
:1045A0009DF8000040F002000090AC4890F8220016
:1045B00020B19DF8000040F080000090A74A1268EA
:1045C000117DA64A526810786B460122FDF783FDE3
:1045D00010B14FF0FF30D9E7A04880F82340002009
:1045E000D4E738B5044604F0700010B10120009003
:1045F00005E014B10020009001E040200090974AAF
:104600001268917C954A526810786B460122FDF73A
:1046100062FD20B1002191488172481E38BD9DF88D
:10462000000020F040018D4801730020009004F04C
:10463000400020B99DF8000040F00400009004F014
:10464000200020B99DF8000040F00200009004F026
:10465000100020B99DF8000040F00100009004F027
:10466000080020B99DF8000040F0380000907B4A17
:104670001268D17C794A526810786B460122FDF7A6
:104680002AFD20B1002175488172481EC6E724B179
:10469000082C02D00020FFF771FF704884720021BF
:1046A00001753220FDF7B7FB0020B7E738B50446A7
:1046B0006A48807CA04201D1002038BD002C46D041
:1046C000664A12681179654A526810786B46012271
:1046D000FDF750FD10B14FF0FF30EEE79DF8000000
:1046E00020F0200000905D4A126811795B4A526800
:1046F00010786B460122FDF7EEFC10B14FF0FF3051
:10470000DBE70320FDF787FB02200090534890F879
:10471000220020B19DF8000040F0800000904F483A
:1047200090F8230020B19DF8000040F03000009088
:104730004A4A1268117D494A526810786B46012234
:10474000FDF7C9FC002851D04FF0FF30B5E7434AD0
:1047500012681179414A526810786B460122FDF7C0
:1047600009FD10B14FF0FF30A7E73C48807A00F018
:10477000010028B19DF8000040F02000009004E006
:104780009DF8000020F020000090344A1268117952
:10479000324A526810786B460122FDF79CFC10B13A
:1047A0004FF0FF3089E70320FDF735FB2B4890F8E9
:1047B000220010B18020009001E0002000902748E6
:1047C00090F8230020B19DF8000040F030000090E8
:1047D000224A1268117D214A526810786B460122E4
:1047E000FDF779FC10B14FF0FF3066E71B48847489
:1047F000002062E708B51948807A10B94FF0FF3001
:1048000008BD00200090154A1268D17B134A5268F7
:1048100010786B460122FDF75EFC10B14FF0FF30BF
:10482000EEE70E4A126851790C4A526810786B46CE
:104830000122FDF750FC10B14FF0FF30E0E7074ACE
:1048400012681179054A526810786B460122FDF70B
:1048500042FC28B14FF0FF30D2E70000E401002015
:10486000F74890F82400002853D00C200090F44A18
:1048700012681179F24A526810786B460122FDF7EE
:104880002AFC10B14FF0FF30BAE73220FDF7C3FA2F
:10489000C0200090EA48807A00F0010020B19DF825
:1048A000000040F020000090E54A12681179E44AC7
:1048B000526810786B460122FDF70DFC10B14FF0E5
:1048C000FF309DE7DE48407C10B10220009001E0FF
:1048D00000200090DA4A1268D17BD94A52681078D9
:1048E0006B460122FDF7F7FB10B14FF0FF3087E771
:1048F00000200090D24A12685179D14A526810784B
:104900006B460122FDF7E7FB002855D04FF0FF3042
:1049100076E704200090CA4A12681179C84A5268A2
:1049200010786B460122FDF7D6FB10B14FF0FF3037
:1049300066E7C348807C20B9C148807A00F0010056
:1049400010B94020009001E060200090BC4A12683D
:104950001179BB4A526810786B460122FDF7BBFB08
:1049600010B14FF0FF304BE73220FDF754FAB44856
:10497000407C10B10120009001E000200090B04A7E
:104980001268D17BAE4A526810786B460122FDF75F
:10499000A2FB10B14FF0FF3032E7A94A12685179FB
:1049A000A74A52681078A64B10330122FDF793FBFB
:1049B00010B14FF0FF3023E7002021E770B5044627
:1049C000002624F001049E4890F8240008B100203D
:1049D00070BD9B48807A10B94FF0FF30F8E79848D7
:1049E000057C807A2040964908740846007CA042E5
:1049F00002D04FF0FF3600E0002614B99048007D49
:104A000018B10120FFF730FD02E00020FFF72CFD78
:104A10003CB1FFF7EFFE20B1894805744FF0FF303D
:104A2000D6E73046D4E738B504468548807A10B9D1
:104A30004FF0FF3038BDBC2C02DB0120009015E0A8
:104A4000622C02DB0220009010E02A2C02DB032003
:104A500000900BE0142C02DB0420009006E00A2CEE
:104A600002DB0520009001E0062000907448C07A27
:104A70009DF80010884201D10020DBE7704A1268DF
:104A800091786F4A526810786B460122FDF723FB3C
:104A900010B14FF0FF30CDE79DF800106848C172AB
:104AA0000020C7E738B50446282C02DD4FF0FF3060
:104AB00038BDDCB90020FFF761FD00208DF8000053
:104AC00007208DF801005E4A1268917C5C4A5268AA
:104AD00010786B460222FDF7FEFA10B14FF0FF305E
:104AE000E6E70021564801750020E1E70120FFF7C5
:104AF00045FD20208DF80000012C06D100208DF806
:104B000001000520FFF78FFF17E0052C06DC0120D0
:104B10008DF801000520FFF786FF0EE0142C06DC5F
:104B200002208DF801000A20FFF77DFF05E0032039
:104B30008DF801001420FFF776FF9DF80100072192
:104B400001EB8010C0B28DF801003D4A1268917CE3
:104B50003B4A526810786B460222FDF7BCFA10B14E
:104B60004FF0FF30A4E7082135488172002101731E
:104B7000012101750020FFF721FF002098E738B5DB
:104B800004462F48807A10B94FF0FF3038BD2C48CA
:104B900090F8240010B14FF0FF30F7E72848007D6F
:104BA00050B134B1282C04DCE0B2FFF77BFF0020C9
:104BB000ECE70020FFF776FF042C01DA042404E080
:104BC000B4F57A7F01DD4FF47A744FF47A7090FB7C
:104BD000F4F0401EC0B20090194A12685178184A89
:104BE000526810786B460122FDF775FA10B14FF04C
:104BF000FF30CBE79DF80000401C4FF47A7191FB29
:104C0000F0F081B20E48C1810146C9894810FFF712
:104C10000AFF0020BAE738B504460948807A10B97F
:104C20004FF0FF3038BD022C06D0042C0AD0082CDF
:104C30000BD0102C0FD10BE0002000900EE00000F4
:104C4000E40100200820009008E01020009005E01A
:104C50001820009002E04FF0FF30E3E700BFF84873
:104C6000407A9DF80010B0EBE10F01D10020D9E7A8
:104C7000F34A1268D179F24A526810786B460122E1
:104C8000FDF729FA10B14FF0FF30CBE79DF8000097
:104C9000C110EB4841720020C4E738B50446E8482B
:104CA000807A10B94FF0FF3038BDFA2C09D0B4F536
:104CB000FA7F09D0B4F57A7F09D0B4F5FA6F0CD138
:104CC00008E0002000900BE00820009008E0102091
:104CD000009005E01820009002E04FF0FF30E3E77D
:104CE00000BFD748007A9DF80010B0EBE10F01D16A
:104CF0000020D9E7D24A12689179D14A52681078D7
:104D00006B460122FDF7E7F910B14FF0FF30CBE71A
:104D10009DF80000C010CA4908720020C4E71CB505
:104D200080208DF80000C64A1268917CC44A5268FF
:104D300010786B460122FDF7CEF910B14FF0FF302D
:104D40001CBD6420FDF767F800208DF80000BC4A08
:104D50001268917CBA4A526810786B460122FDF7BE
:104D6000BAF910B14FF0FF30EAE7B54A1268917D09
:104D7000B34A526810786B460622FDF7FBF910B172
:104D80004FF0FF30DCE79DF80500C007400F9DF8AD
:104D9000031001F0010140EA41009DF8011001F00B
:104DA000010140EA01048CB1012C03D10121A44886
:104DB000C17430E0022C03D10021A148C1742AE063
:104DC000A0A0FFF768FA4FF0FF30B9E79C4A1268DD
:104DD000D1789B4A526810786B460122FDF7CAF9D8
:104DE00010B14FF0FF30ABE79DF8000000F00F046A
:104DF0002CB99E48FFF74FFA4FF0FF30A0E7042C84
:104E000006D19BA0FFF747FA01218D48C17402E04B
:104E100000218B48C174FF2189488172FF20884995
:104E20000872FF2186484172C1724FF6FF71C1813D
:104E3000FF21017481740121017380F82210002187
:104E400080F8231041750175163001604160816062
:104E5000163880F8241080F82510C1844FF4FA60C9
:104E6000FFF71BFF10B14FF0FF3069E70220FFF79B
:104E7000D2FE10B14FF0FF3062E72A20FFF7D3FDDA
:104E800010B14FF0FF305BE73220FFF778FE10B132
:104E90004FF0FF3054E70020FFF790FD10B14FF0C6
:104EA000FF304DE70020FFF701FC10B14FF0FF305D
:104EB00046E70020FFF795FB002041E77CB504465C
:104EC0000D465F48807A00F0700010B94FF0FF3057
:104ED0007CBD5B4A1268117B594A526810786B4658
:104EE0000622FDF747F910B14FF0FF30F0E79DF8CB
:104EF00001009DF8001040EA012000B220809DF8DA
:104F000003009DF8021040EA012000B260809DF885
:104F100005009DF8041040EA012000B2A08015B100
:104F20002846FCF784FF0020D2E77CB504460D46F6
:104F30004348807A00F0080010B94FF0FF307CBD84
:104F40003F4A1268517B3E4A526810786B460622EF
:104F5000FDF710F910B14FF0FF30F0E79DF80100B8
:104F60009DF8001040EA012000B220809DF8030067
:104F70009DF8021040EA012000B260809DF8050013
:104F80009DF8041040EA012000B2A08015B1284627
:104F9000FCF74DFF0020D2E72DE9FE4F05460C46F9
:104FA0002748807A18B94FF0FF30BDE8FE8F244AB9
:104FB0001268917B224A5268107802AB0222FDF7F8
:104FC000D9F810B14FF0FF30EFE79DF809009DF8D8
:104FD000081040EA012006B214B12046FCF727FF72
:104FE00017494968C88802F0BDFB15490190496816
:104FF000B1F9080002F0ADFB8346304602F0A9FB90
:105000005946009002F0A7F98246019902F0DBF9B7
:1050100081461F4902F04DF980464FF08F4102F062
:10502000A0F9074602F0B4FB28600020BDE710B5E8
:1050300088B004461CB94FF0FF3008B010BD29E01D
:10504000E4010020556E737570706F727465642092
:10505000736F6674776172652070726F64756374C4
:10506000207265762025642E0A000000109F00083B
:1050700048616C662073656E7369746976697479CA
:10508000207061727420666F756E642E0A000000D5
:1050900000000C42206830B9606820B9A06810B9DF
:1050A000002008B010BDFA494968087806AB032211
:1050B0001146FDF75FF810B14FF0FF30F1E79DF8B2
:1050C0001800082101EB201000F00F00ADF80000DF
:1050D0009DF8190001EB201000F00F00ADF8020060
:1050E0009DF81A0001EB201000F00F00ADF804004D
:1050F00020684100BDF90000403091FBF0F000B2A3
:10510000ADF8100060684100BDF90200403091FB2D
:10511000F0F000B2ADF81200A0684100BDF9040043
:10512000403091FBF0F000B2ADF81400D849496866
:10513000087806AB06221146FDF71CF810B14FF0B7
:10514000FF30AEE79DF819009DF8181040EA0120E5
:1051500000B2ADF808009DF81B009DF81A1040EA57
:10516000012000B2ADF80A009DF81D009DF81C104A
:1051700040EA012000B2ADF80C00BDF81000BDF807
:105180000810084400B2ADF81000BDF81200BDF8D8
:105190000A10084400B2ADF81200BDF81400BDF8C2
:1051A0000C10084400B2ADF81400BDF81000000A5D
:1051B0008DF81800BDF81000C0B28DF81900BDF8C8
:1051C0001200000A8DF81A00BDF81200C0B28DF866
:1051D0001B00BDF81400000A8DF81C00BDF8140077
:1051E000C0B28DF81D00AA494968087806AB0622AE
:1051F0001146FCF770FF10B14FF0FF3051E700206F
:105200004FE70146A248007A30B1012807D00228B2
:1052100009D003280FD10AE0FA2008800EE04FF4ED
:10522000FA7008800AE04FF47A70088006E04FF4C4
:10523000FA60088002E00020088000BF00BF002064
:10524000704701469248407A30B1012807D00228C1
:1052500008D003280CD108E0022008700BE00420DD
:10526000087008E00820087005E01020087002E0CF
:105270004FF0FF30704700BF8548C07C18B10878F8
:105280004006000E08700020F4E701468048C07A0E
:10529000082817D2DFE800F01704070A0D101318CA
:1052A000BC20088013E06220088010E02A200880DB
:1052B0000DE0142008800AE00A20088007E005209D
:1052C000088004E000BF00BF0020088000BF00BFCE
:1052D0000020704701466E4890F8240010B14FF04E
:1052E000FF3070476A48C08908800020F9E701460E
:1052F00000200880401E704701464FF0FF30704785
:1053000001466348007A30B1012807D0022808D04E
:1053100003280CD108E05F4808600BE05E48086095
:1053200008E05E48086005E05D48086002E04FF074
:10533000FF30704700BF0020FBE701465448407A29
:1053400030B1012808D002280AD0032810D10BE080
:105350004FF4804008800EE041F69C7008800AE01F
:105360004FF48050088006E04FF40060088002E0AF
:105370004FF0FF30704700BF4548C07C10B108882F
:10538000401008800020F5E701464148007C087085
:105390000020704701463E48807A10B10120087015
:1053A00001E0002008700020704738B504463848F6
:1053B000807A10B94FF0FF3038BD354A1268117C41
:1053C000334A526810786B460222FCF7D3FE10B1C4
:1053D0004FF0FF30F0E79DF801009DF8001040EA23
:1053E000012000B220800020E6E72DE9FE4F0746AD
:1053F000884692461D46DDF830B000260024244839
:1054000090F8240010B1601EBDE8FE8F00202870C7
:105410001F48807A10B94FF0FF30F5E71C48007C38
:1054200010B94FF0FF30EFE71948007C00F0400062
:1054300008B1B01CC6B21648007C00F0200008B1CC
:10544000B01CC6B21248007C00F0100008B1B01CBD
:10545000C6B20F48007C00F0080008B1B01DC6B20B
:105460000B4A1268917A0A4A526810786B460222F7
:10547000FCF780FE10B14FF0FF30C5E79DF801004A
:105480009DF8001040EA0129B1450BDA0020BBE786
:10549000E401002000000343000083423333034251
:1054A00033338341FC4840684088B9EB600F17DD17
:1054B000F94A1268517CF84A526810786B4601220A
:1054C000FCF758FE10B14FF0FF309DE79DF800004B
:1054D00000F0100020B1FFF78DF96FF0010093E7A5
:1054E0005046FCF7A4FCEC4A1268D17AEA4A5268AA
:1054F00010786B463246FCF73DFE10B14FF0FF309E
:1055000082E799FBF6F0401E8BF80000002028701F
:10551000B4422AD0E048007C00F0080028B3601CA8
:105520001DF800001DF8041040EA012000B2A8F8A0
:105530000000E01C1DF80010A01C1DF8000041EA4E
:10554000002000B2A8F80200601D1DF80010201D08
:105550001DF8000041EA002000B2A8F804002878F5
:1055600040F008002870A01D84B2B44213D0CA488D
:10557000007C00F0400070B1601C1DF800001DF8B8
:10558000041040EA012000B23880287840F0400042
:105590002870A01C84B2B44213D0BF48007C00F035
:1055A000200070B1601C1DF800001DF8041040EAD6
:1055B000012000B27880287840F020002870A01CDC
:1055C00084B2B44213D0B448007C00F0100070B133
:1055D000601C1DF800001DF8041040EA012000B214
:1055E000B880287840F010002870A01C84B20020F9
:1055F0000AE7F8B504460F461646A74890F8240077
:1056000010B94FF0FF30F8BDA348807A10B94FF0C1
:10561000FF30F8E7A04A1268917A9F4A52681078E2
:105620006B460222FCF7A6FD10B14FF0FF30EAE70F
:105630009DF801009DF8001040EA0125A54203DA1B
:1056400000203070401EDEE7934840684088B5EB8C
:10565000600F17DD904A1268517C8F4A52681078AB
:105660006B460122FCF786FD10B14FF0FF30CAE710
:105670009DF8000000F0100020B1FFF7BBF86FF0BC
:105680000100C0E7E2B2844B1B68D97A824B5B68A9
:1056900018783B46FCF76EFD10B14FF0FF30B2E7D3
:1056A00095FBF4F0401E30700020ACE701467A48CC
:1056B00080F82210002070477CB50546764949687D
:1056C000087801AB04220D21FCF754FD08B1072036
:1056D0007CBD9DF80700C0F301109DF8041001F097
:1056E000E00140EAE1008DF800009DF80700C0F3FA
:1056F00081009DF8051001F0E00140EAE1008DF81D
:1057000001009DF8070000F003009DF8061001F06D
:10571000E00140EAE1008DF8020000241CE01DF8E1
:10572000040018B9002045F8240013E05B4845F850
:10573000240006E055F82400594901F012FE45F80E
:1057400024001DF80400401EC0B20DF8040000281B
:10575000F0D100BF601CC4B2032CE0DB0020B7E72F
:105760002DE9FE4F06460F4600256846FFF7A4FFC9
:10577000002442E056F8240057F82410A0EB010A58
:10578000BAF1000F01DB514601E0CAF10001084601
:1057900001F0DFFF83464FF08F4101F014FE804699
:1057A0005DF82400002102F067F816D05DF824109F
:1057B000404601F008FE82464FF07E5101F0CBFDDD
:1057C000814629F0004A3748416A504602F05EF8A7
:1057D00012D20120A04005430EE03248C169404684
:1057E00002F04AF805D32F48016A404602F04EF80D
:1057F00002D20120A0400543641C032CBADB2846DA
:10580000BDE8FE8F2DE9FC5F06460F4600252249C4
:105810004968087801AB03220D21FCF7ABFC10B1FD
:105820000720BDE8FC9F9DF8040000F01F008DF8E4
:1058300004009DF8050000F01F008DF805009DF89C
:10584000060000F01F008DF80600002462E056F804
:10585000240057F82410A0EB010BBBF1000F01DB73
:10586000594601E0CBF10001084601F072FF4FF00C
:105870008F41009001F0A7FD814601A8005DC0B3F3
:105880000849086801F06EFF83465946064801F052
:105890009AFD80460FE00000E40100207B14AE3E3C
:1058A0001D5A843FC091000800B04C45FE49404657
:1058B00001F057FD804601A8005D401EC0B201A95D
:1058C00008550028F2D14146484601F07CFD834648
:1058D0004FF07E5101F03FFD82462AF0004BF34825
:1058E0008169584601F0D2FF13D20120A040054340
:1058F0000FE0FFE7ED480169484601F0BDFF05D321
:10590000EA484169484601F0C1FF02D20120A040A7
:105910000543641C032C9ADB284682E72DE9F04FEF
:1059200087B005460C46914601208DF810000020F6
:105930008DF81100DE4A1268917CDD4A52681078B9
:1059400004AB0222FCF7C7FB20B14FF0FF3007B0D9
:10595000BDE8F08FC820FCF75EFA00208DF810003B
:10596000D34A1268D17BD24A5268107804AB012224
:10597000FCF7B1FB10B14FF0FF30E8E7CC4A1268FA
:105980005179CB4A5268107804AB0122FCF7A3FB93
:1059900010B14FF0FF30DAE7C54A1268917CC44A73
:1059A0005268107804AB0122FCF795FB10B14FF060
:1059B000FF30CCE7BE4A1268D17DBD4A52681078EC
:1059C00004AB0122FCF787FB10B14FF0FF30BEE7BC
:1059D000B74A12681179B64A5268107804AB0122AE
:1059E000FCF779FB10B14FF0FF30B0E70C208DF8D9
:1059F0001000AF4A12681179AD4A5268107804ABB2
:105A00000122FCF768FB10B14FF0FF309FE70F2039
:105A1000FCF701FAA648806A407A8DF81000A44A83
:105A200012689178A24A5268107804AB0122FCF700
:105A300052FB10B14FF0FF3089E79D48806A007A31
:105A40008DF810009A4A12685178994A5268107875
:105A500004AB0122FCF73FFB10B14FF0FF3076E7BB
:105A6000B9F1000F07D09248806A807A40F0E000D8
:105A70008DF8100004E08E48806A807A8DF810005E
:105A80008B4A126891798A4A5268107804AB0122D5
:105A9000FCF721FB10B14FF0FF3058E7B9F1000FD0
:105AA00007D08348806AC07A40F0E0008DF810008B
:105AB00003E07E48C07A8DF810007D4A1268D179E3
:105AC0007B4A5268107804AB0122FCF704FB10B14A
:105AD0004FF0FF303BE7B9F1000F02D0C820FCF7D0
