:020000040800F2
:10000000F0070020553E0008252C0008272C00088A
:100010002B2C00082F2C0008332C000800000000B7
:10002000000000000000000000000000372C000865
:10003000392C0008000000003B2C00083D2C000873
:100040006F3E00086F3E00086F3E00086F3E0008DC
:100050006F3E00086F3E00086F3E0008CF3D00086D
:100060006F3E00086F3E00086F3E00086F3E0008BC
:100070006F3E00086F3E00086F3E00086F3E0008AC
:100080006F3E00086F3E00086F3E00086F3E00089C
:100090006F3E00086F3E00086F3E00086F3E00088C
:1000A0006F3E0008393D00086F3E00086F3E0008B3
:1000B0006F3E00086F3E00086F3E00086F3E00086C
:1000C0006F3E00086F3E00086F3E00086F3E00085C
:1000D0006F3E00086F3E00086F3E0008432D000889
:1000E0006F3E00086F3E00086F3E000800F002F807
:1000F00000F05CF80AA090E8000C82448344AAF166
:100100000107DA4501D100F051F8AFF2090EBAE863
:100110000F0013F0010F18BFFB1A43F0010318473B
:1001200040960000609600000A444FF0000C10F862
:10013000013B13F0070408BF10F8014B1D1108BF65
:1001400010F8015B641E05D010F8016B641E01F805
:10015000016BF9D113F0080F1EBF10F8014BAD1C55
:100160000C1B09D16D1E58BF01F801CBFAD505E073
:1001700014F8016B01F8016B6D1EF9D59142D6D3CD
:10018000704700000023002400250026103A28BFF5
:1001900078C1FBD8520728BF30C148BF0B607047F9
:1001A0001FB508F0ECFA1FBD10B510BD06F0A0FE9B
:1001B0001146FFF7F5FF02F055F806F0BEFE03B456
:1001C000FFF7F2FF03BC06F0C5FE0000364901430D
:1001D000364A1160704770B5002100230F22C478A1
:1001E0004CB3324C246804F4E064C4F5E0644FEA94
:1001F0001421C1F1040322FA01F2447804FA03F154
:10020000847804EA020444EA01014FEA0111284C0F
:100210000678A155047804F01F054FF0010404FA94
:1002200005F405784FEA65154FF0E02606EB8505E5
:10023000C5F8004109E0047804F01F050124AC4032
:100240001C4D0678761145F8264070BD1A4A0A40C2
:1002500002431A4B1A60704741B1194A126842EAC8
:1002600000024FF0E023C3F8102D07E0144A126893
:1002700022EA00024FF0E023C3F8102D7047042853
:1002800008D14FF0E021096941F004014FF0E0226C
:10029000116107E04FF0E021096921F004014FF0FE
:1002A000E0221161704700000000FA050CED00E04B
:1002B00000E400E080E100E080FFFF1F08ED00E0C7
:1002C00010ED00E00020474908604749C1F80404E8
:1002D0004649086001F10401086045484549086045
:1002E000704700213F498279DAB33F4AD2F80024AF
:1002F00003689A433C4BC3F800241A46D2F80424FE
:1003000003689A4301F104031A60027911440A68F0
:10031000036842EA03020A60334AD2F808240368F9
:1003200022EA0302304BC3F808241A46D2F80C2400
:10033000036822EA0302304B1A604279102A11D175
:10034000294AD2F8082403681A43274BC3F8082423
:100350001A46D2F80C2403681A43234BC3F80C2422
:100360000EE007E01F49427911440A6803681A4306
:100370000A6005E0027911440A6803689A430A603A
:1003800070470021016001710C21417100218171D0
:1003900070471A49096841EA0001134AC2F810146B
:1003A000704701460020134A12680A4201D001201A
:1003B00000E0002070470F490860704701460020A8
:1003C0000022084B1B6803EA0102074BD3F81434E0
:1003D0000B4202D00AB1012000E00020704705491D
:1003E000086070470004014000000140080401401B
:1003F000FFFF0F00140401400C04014010040140F1
:1004000010B50446CA48844208D10121042000F0F6
:1004100024FB0021042000F020FB46E0C548844274
:1004200008D10121082000F018FB0021082000F06D
:1004300014FB3AE0C048844208D10121102000F0AA
:100440000CFB0021102000F008FB2EE0BB4884428A
:1004500008D10121202000F000FB0021202000F025
:10046000FCFA22E0B648844208D10121402000F085
:10047000F4FA0021402000F0F0FA16E0B14884427E
:1004800008D10121802000F0E8FA0021802000F04E
:10049000E4FA0AE0AC48844207D10121801500F05B
:1004A000DCFA0021A01500F0D8FA10BD10B501212A
:1004B000084600F0D2FA0021012000F0CEFA10BD6B
:1004C0002DE9F041024600250026002000230024EB
:1004D000002791F803C00CF00F0591F803C01CF041
:1004E000100F03D091F802C04CEA0505B1F800C026
:1004F0001CF0FF0F31D0146800202BE04FF0010CEE
:100500000CFA00F3B1F800C00CEA03069E4220D1B9
:1005100083004FF00F0C0CFA03F7BC4305FA03FC01
:100520004CEA040491F803C0BCF1280F06D14FF047
:10053000010C0CFA00FCC2F814C00AE091F803C0E8
:10054000BCF1480F05D14FF0010C0CFA00FCC2F8C9
:1005500010C0401C0828D1D31460B1F800C0BCF111
:10056000FF0F34DD546800202EE000F1080C4FF03E
:10057000010808FA0CF3B1F800C00CEA03069E4229
:1005800021D183004FF00F0C0CFA03F7BC4305FA9E
:1005900003FC4CEA040491F803C0BCF1280F05D118
:1005A00000F1080C08FA0CF8C2F8148091F803C0A6
:1005B000BCF1480F07D100F1080C4FF0010808FA10
:1005C0000CF8C2F81080401C0828CED35460BDE857
:1005D000F0814FF6FF710180022181700421C1700A
:1005E00070470246002093680B4201D0012000E0D2
:1005F000002070470146886880B27047024600209C
:10060000D3680B4201D0012000E000207047014672
:10061000C86880B2704701617047416170470AB194
:10062000016100E041617047C16070474FF4803262
:100630000A438261816182618269826970470246F0
:100640000020424B18684FF68073184040EA0210B1
:1006500008433E4B186070473D49C8617047F0B58C
:100660000A46002300240021002500F00046B6F1D0
:10067000004F02D1354EF16901E0344E7168C0F38C
:10068000034583B200F44016B6F5401F08D121F0AF
:1006900070612E4E766826F070662C4F7E6012E0F8
:1006A00000F48016B6F5801F06D1032606FA05F47D
:1006B000A14341F0706106E0460D360103FA06F6EB
:1006C000B14341F0706122B1460D360103FA06F6DE
:1006D000314300F00046B6F1004F02D11B4EF161EC
:1006E00001E01A4E7160F0BD30B500228B071C0F7F
:1006F0000F2303FA04F2154B08338C1053F82430FF
:100700009343124C08348D1044F8253023468C1046
:1007100053F824308C07240F00FA04F423430B4CC5
:1007200008348D1044F8253030BD0A490860704700
:1007300000080140000C014000100140001401407D
:1007400000180140001C0140002001400000014051
:1007500000002042DC002042DB48006840F001003D
:10076000D949086008464068D8490840D6494860D9
:1007700008460068D6490840D34908600846006822
:1007800020F4802008600846406820F4FE0048609D
:100790004FF41F0088607047CB49096821F480310D
:1007A000C94A11601146096821F480211160B0F531
:1007B000803F03D0B0F5802F0ED106E0C249096812
:1007C00041F48031C04A116007E0BF49096841F433
:1007D000A021BD4A116000E000BF00BF704710B506
:1007E00001460022002300204A11012A02D1B64C02
:1007F000236806E0022A02D1B34C236A01E0B24C1E
:10080000636A01F01F02012494401C4201D00120C0
:1008100000E0002010BD70B500240025002600BFB8
:100820003120FFF7DCFF0646641CB4F5A06F01D051
:10083000002EF5D03120FFF7D2FF08B1012500E0EE
:100840000025284670BD014600209F4A106820F010
:10085000F80040EAC100106070479E490860704788
:1008600002460020984B586820F47C1042EA0103AD
:100870001843954B58607047964908667047014683
:100880000020914A506820F00300084350607047F0
:100890008D48406800F00C007047014600208A4AED
:1008A000506820F0F0000843506070470146002077
:1008B000854A506820F4E060084350607047014664
:1008C0000020814A506820F4605040EAC100506026
:1008D000704729B17C4A527A02437B4B5A7206E038
:1008E000794A527AC343DBB21A40774B5A72704747
:1008F00079490860704701460020734A506820F427
:1009000040400843506070470021744A11706E4A9D
:1009100082F82010012802D0042808D103E0012128
:100920006E4A117004E005216C4A117000E000BFAE
:1009300000BF70476A49086070476349096A01430C
:10094000614A1162704767490860704730B50021FD
:100950000022002400235C4D6D6805F00C0121B1DC
:10096000042905D0082923D105E05F4D056022E068
:100970005D4D05601FE0544D6D6805F47012524DD9
:100980006D6805F48034022505EB92421CB9574D81
:10099000554305600BE04C4D6D6815F4003F03D0E6
:1009A000524D5543056002E04F4D5543056002E04E
:1009B0004D4D056000BF00BF434D6D6805F0F0016F
:1009C00009094B4D6B5C0568DD4045603E4D6D6827
:1009D00005F4E061090A464D6B5C4568DD408560C1
:1009E000394D6D6805F46051C90A414D6B5C45682D
:1009F000DD40C560344D6D6805F44041890B3D4DC7
:100A00006B5CC568B5FBF3F5056130BD29B12E4AB5
:100A1000526902432C4B5A6104E02B4A52698243CB
:100A2000294B5A61704729B1274A92690243264BE4
:100A30009A6104E0244A92698243234B9A61704789
:100A400029B1214AD26902431F4BDA6104E01E4AF0
:100A5000D26982431C4BDA61704729B11A4AD268C5
:100A60000243194BDA6004E0174AD2688243164BFE
:100A7000DA60704729B1144A12690243124B1A61B5
:100A800004E0114A126982430F4B1A6170471A49F8
:100A9000086070470F49C86470470B49C8717047B8
:100AA0000948406A40F08070074948627047014633
:100AB0000020054A92680A4201D0012000E000208F
:100AC0007047014988727047001002400000FFF82B
:100AD000FFFFF6FE00004242D800424220100240D2
:100AE000800442423C04424200127A0000093D0068
:100AF00000000020100000204004424210B50446CF
:100B0000FF48844208D10121C014FFF7A6FF00214D
:100B1000E014FFF7A2FFC4E0B4F1804F08D1012137
:100B20000846FFF7A7FF00210120FFF7A3FFB8E069
:100B3000F448844208D101210220FFF79BFF0021E5
:100B40000220FFF797FFACE0EF48844208D1012173
:100B50000420FFF78FFF00210420FFF78BFFA0E0A8
:100B6000EA48844208D101210820FFF783FF0021D1
:100B70000820FFF77FFF94E0E548844208D1012177
:100B80001020FFF777FF00211020FFF773FF88E0A8
:100B9000E048844208D101212020FFF76BFF0021AB
:100BA0002020FFF767FF7CE0DB48844208D1012169
:100BB0004014FFF752FF00216014FFF74EFF70E072
:100BC000D648844209D10121C804FFF746FF00211D
:100BD0004FF40020FFF741FF63E0D148844209D180
:100BE00001210805FFF739FF00214FF48010FFF7BE
:100BF00034FF56E0CB48844209D101214805FFF774
:100C00002CFF00214FF40010FFF727FF49E0C648F2
:100C1000844208D101214020FFF72CFF0021402011
:100C2000FFF728FF3DE0C148844208D10121802020
:100C3000FFF720FF00218020FFF71CFF31E0BC48B8
:100C4000844208D101218015FFF714FF0021A0156F
:100C5000FFF710FF25E0B748844209D101210804BD
:100C6000FFF7FBFE00214FF48030FFF7F6FE18E09F
:100C7000B148844209D101214804FFF7EEFE00216A
:100C80004FF40030FFF7E9FE0BE0AC48844208D196
:100C900001218804FFF7E1FE00214FF48020FFF7D7
:100CA000DCFE10BD00220288954B98420ED09A4B74
:100CB00098420BD0B0F1804F08D0924B984205D0AB
:100CC000914B984202D0914B984204D14FF68F73CA
:100CD0001A404B881A438E4B984207D08D4B98424E
:100CE00004D04FF6FF431A40CB881A4302808B880A
:100CF00083850B880385824B98420BD0864B9842A4
:100D000008D08C4B984205D08B4B984202D08B4B2D
:100D1000984201D10B7A038601238382704770B514
:100D2000002400220023058C4FF6FE763540058412
:100D3000028C8388048B4FF68F752C40B51E2C4097
:100D40000D882C43751E2A400D892A434D882A435D
:100D50006B4DA8420BD0704DA84208D0754DA842EB
:100D600005D0754DA84202D0744DA84213D14FF65C
:100D7000F7752A404D892A434FF6FB752A408D8826
:100D80002A434FF6FF652B404FF6FF552B408D89C8
:100D90002B43CD892B4383800483CD8885860284B1
:100DA00070BD70B5002400220023058C4FF6EF764D
:100DB00035400584028C8388048B48F6FF752C40EF
:100DC0004FF6FF452C400D882D0644EA15444FF69A
:100DD000DF752A400D892D0542EA15424D882D0503
:100DE00042EA1542464DA84202D04B4DA8421BD1C3
:100DF0004FF67F752A404D892D0542EA15424FF680
:100E0000BF752A408D882D0542EA15424FF6FF3501
:100E10002B404FF2FF752B408D89AD0443EA1543FB
:100E2000CD89AD0443EA154383800483CD880587CB
:100E3000028470BD70B5002400220023058C4FF69B
:100E4000FF6635400584028C8388848B4FF68F754E
:100E50002C404FF6FC752C400D882C434FF6FF5567
:100E60002A400D892D0642EA15424D882D0642EA98
:100E70001542234DA84202D0274DA8421BD14FF264
:100E8000FF752A404D892D0642EA15424FF6FF357F
:100E90002A408D882D0642EA15424EF6FF752B40FA
:100EA0004DF6FF752B408D892D0543EA1543CD89FD
:100EB0002D0543EA154383808483CD88858702848A
:100EC00070BD70B5002200230024058C4EF6FF761D
:100ED00035400584038C8488828B48F6FF752A4050
:100EE0004FF6FF452A400D882D0642EA15424DF681
:100EF000FF752B400D892D0743EA15434D881FE0F0
:100F0000002C01400004004000080040000C00409C
:100F1000001000400014004000340140004C01402B
:100F2000005001400054014000180040001C0040E7
:100F300000200040004001400044014000480140C2
:100F40002D0743EA1543F94DA84202D0F84DA842B7
:100F500006D14BF6FF752C408D89AD0544EA15444A
:100F600084808283CD88A0F84050038470BD828B3A
:100F70004FF2FF331A408283828B0B0642EA134200
:100F800082837047F0B50C461546002200210026EA
:100F9000078C4EF6FF7C07EA0C070784828B018CD6
:100FA00027073E0C40F6FF473A402F0642EA174219
:100FB0001F0742EA1742DD4FB8420ED0DC4FB8425D
:100FC0000BD0B0F1804F08D0DA4FB84205D0DA4FDD
:100FD000B84202D0D94FB84206D14DF6FF7739401A
:100FE00046F48057394305E047F6FF57394044F44B
:100FF0008057394382830184F0BD828B4FF6F373AF
:101000001A408283828B0A4382837047F0B50C4674
:101010001546002200210026078C4FF6FF6C07EAD8
:101020000C070784828B018C27063E0C4FF60C7749
:101030003A401F0545EA17473A43BC4FB8420ED025
:10104000BB4FB8420BD0B0F1804F08D0B94FB84277
:1010500005D0B94FB84202D0B84FB84206D14FF6CA
:10106000FF57394046F48077394305E04FF2FF5788
:10107000394044F48077394382830184F0BD028B88
:101080004FF2FF331A400283028B0B0642EA1342EF
:1010900002837047F0B50C46154600220021002659
:1010A000078C4FF6EF7C07EA0C070784028B018C54
:1010B00027053E0C40F6FF473A401F0742EA174219
:1010C0002F0642EA1742994FB8420ED0984FB842C5
:1010D0000BD0B0F1804F08D0964FB84205D0964F54
:1010E000B84202D0954FB84206D14FF6DF7739406B
:1010F00046F01007394305E04FF65F77394044F07A
:101100001007394302830184F0BD028B4FF6F3735D
:101110001A400283028B0A4302837047F0B50C46E3
:10112000154600220021068C4FF6FE773E400684CD
:10113000028B018C4FF60C7632401E0545EA1646AE
:1011400032437A4EB0420ED0794EB0420BD0B0F15D
:10115000804F08D0774EB04205D0774EB04202D0D3
:10116000764EB04206D14FF6FD76314044F001068E
:10117000314305E04FF6F576314044F00106314346
:1011800002830184F0BD70B505460C466748854270
:101190000ED0674885420BD0B5F1804F08D0654826
:1011A000854205D06448854202D06448854200D11A
:1011B00000E000BF208850B92389A28861882846B2
:1011C000FFF7ACFFE1882846FFF79FFF25E0208866
:1011D00004280AD12389A28861882846FFF75AFF8C
:1011E000E1882846FFF74BFF17E0208808280AD13E
:1011F0002389A28861882846FFF708FFE1882846EE
:10120000FFF7FBFE09E02389A28861882846FFF7E3
:10121000B9FEE1882846FFF7AAFE70BD2DE9F0412E
:1012200005460C4600260127608808B9022600E022
:101230000026A088012801D1022700E0012720888C
:10124000A0B92389A28861882846FFF767FFE18853
:101250002846FFF75AFF23893A4631462846FFF7CA
:1012600019FFE1882846FFF70AFF13E02389A288C7
:1012700061882846FFF70EFFE1882846FFF7FFFE4A
:1012800023893A4631462846FFF748FFE188284639
:10129000FFF73BFFBDE8F0810A884B881A438B8833
:1012A0001A43CB881A430B891A434B891A438B89FB
:1012B0001A43A0F8442070474FF6FF718180002147
:1012C0000180C1804180017270470021018041800E
:1012D0008180C180018141818181C181704700216C
:1012E00001804180012181800021C18001817047FE
:1012F0000021018041808180C18001814181818103
:10130000704721B1028842F00102028004E00288A5
:101310004FF6FE731A400280704789B1B0F844203E
:1013200042F40042A0F8442010E00000002C0140EC
:10133000003401400004004000080040000C004060
:10134000B0F84420C2F30E02A0F84420704710B554
:101350001AB183890B43838104E08389CC43A4B20F
:101360002340838110BD8182704741EA0203A0F8C7
:101370004830704710B51AB183890B43838104E06C
:101380008389CC43A4B22340838110BD01894FF6E9
:10139000F8721140018170470A46002101894FF619
:1013A0008F73194011430181704730B504460D46D3
:1013B00029462046FFF7F0FF208940F007002081F2
:1013C00030BD2DE9F04104460D4616461F46602DFE
:1013D00006D13B46012231462046FFF75BFE05E081
:1013E0003B46012231462046FFF798FE294620461B
:1013F000FFF7D2FF208940F007002081BDE8F0818F
:1014000030B50C4600210189C9B21D0642EA1545D6
:1014100025432943018130BD2DE9F04105460E46A3
:1014200017469846002443463A4631462846FFF779
:10143000E7FF2C894FF6F8710C4044F007044FF693
:101440008F710C4044F070042C81BDE8F081F0B540
:1014500004460D4616461F463B4632462946204660
:10146000FFF7CEFF208940F480402081F0BD018548
:10147000828270470A46002101884FF68F73194017
:10148000114301807047F0B50C4615461E460021F9
:10149000002200230189028B038C4FF6F877394034
:1014A00021434FF6FC473A4040F201173A434FF6CA
:1014B000DD773B40370545EA17473B43018102830F
:1014C0000384F0BD0A460021018B4FF68F7319404B
:1014D0001143018370470A460021018B48F6FF73D0
:1014E0001940130641EA1341018370470A4600215F
:1014F000818B4FF68F7319401143818370470A46E1
:101500000021818B48F6FF731940130641EA13410D
:101510008183704721B1028842F08002028004E09A
:1015200002884FF67F731A400280704721B182888B
:1015300042F00402828004E082884FF6FB731A4076
:101540008280704721B1828842F00802828004E0E4
:1015500082884FF6F7731A408280704721B18288E3
:1015600042F00102828004E082884FF6FE731A4046
:10157000828070470A460021018B4FF6F7731940AD
:101580001143018370470A460021018B4FF2FF731C
:101590001940130641EA1341018370470A460021AE
:1015A000818B4FF6F77319401143818370470A46C8
:1015B0000021818B4FF2FF731940130641EA13415A
:1015C000818370470A460021018B4FF6FB73194057
:1015D0001143018370470A460021018B4FF6FF3308
:1015E0001940130641EA1341018370470A4600215E
:1015F000818B4FF6FB7319401143818370470A4674
:101600000021818B4FF6FF331940130641EA134145
:10161000818370470A460021018B4FF67F73194082
:101620001143018370470A460021018BC1F30E016B
:10163000130641EA1341018370470A460021818B5A
:101640004FF67F7319401143818370470A4600218A
:10165000818BC1F30E01130641EA13418183704768
:101660000A460021018C4FF6FD7319401143018495
:1016700070470A460021018C4FF6F7731940114359
:10168000018470470A460021018C4FF6DF73194030
:10169000130541EA1341018470470A460021018C79
:1016A0004FF67F731940130541EA134101847047D7
:1016B0000A460021018C4FF6FF531940130641EAF8
:1016C0001341018470470A460021018C4FF2FF73D9
:1016D0001940130641EA1341018470470A4600216C
:1016E000018C4DF6FF731940130741EA1341018441
:1016F000704730B5002301248C40A3B2048CDD4335
:10170000ADB22C400484048C02FA01F5ADB22C4336
:10171000048430BD30B5002304248C40A3B2048C73
:10172000DD43ADB22C400484048C02FA01F5ADB265
:101730002C43048430BD70B50346002000241846B5
:10174000183001258D40ACB21D8CE643B6B2354051
:101750001D8409B1082909D100EB6100056825F055
:10176000700505600568154305600CE00D1FADB2FE
:1017700000EB6500056825F4E04505600568160680
:1017800045EA1645056070BD21B1028842F00202AB
:10179000028004E002884FF6FD731A400280704711
:1017A00021B1028842F00402028004E002884FF670
:1017B000FB731A400280704721B1828842F0800298
:1017C000828004E082884FF67F731A4082807047DF
:1017D00002884FF6F7731A40028002880A4302809B
:1017E000704782884FF68F731A40828082880A433E
:1017F0008280704702894FF6F8731A40028102898D
:101800000A430281704702894FF67F731A400281B2
:1018100002890A430281704781847047818570473D
:10182000818670470187704781877047A0F8401014
:10183000704702884FF6FF431A40028002880A432D
:10184000028070470146888E70470146088F7047B6
:101850000146888F70470146B1F840007047014645
:10186000888C70470146088D704702460020138A15
:101870000B4201D0012000E000207047CA430282E1
:10188000704730B50246002000230024158A05EA7F
:101890000103958905EA010413B10CB1012000E0B0
:1018A000002030BDCA4302827047000010B50446D4
:1018B000FC48844209D101218803FFF7CEF80021BA
:1018C0004FF48040FFF7C9F832E0F748844209D16D
:1018D00001214804FFF7CEF800214FF40030FFF754
:1018E000C9F825E0F148844209D101218804FFF7B5
:1018F000C1F800214FF48020FFF7BCF818E0EC4855
:10190000844209D10121C804FFF7B4F800214FF443
:101910000020FFF7AFF80BE0E648844208D1012130
:101920000805FFF7A7F800214FF48010FFF7A2F891
:1019300010BD2DE9F04786B005460E460024A246AC
:1019400000BFA1460027B08900B100BF2F462C8AF6
:101950004CF6FF700440F08804432C82AC894EF6AC
:10196000F3100440B0883189084371890843044367
:10197000AC81AC8A4FF6FF400440B0890443AC828E
:1019800001A8FEF7E3FFC748874202D1DDF810A0A7
:1019900001E0DDF80CA0A88910F4004F08D00AEB94
:1019A000CA0000EB0A1031684900B0FBF1F807E00B
:1019B0000AEBCA0000EB0A1031688900B0FBF1F8AD
:1019C0006420B8FBF0F004012009642101FB1089B8
:1019D000A88910F4004F08D0322000EBC900B0FBFA
:1019E000F1F000F00700044308E0322000EB09109A
:1019F0006421B0FBF1F000F00F0004432C8106B02D
:101A0000BDE8F0874FF41651016000218180C1804C
:101A100001810C21418100218181704710B502466E
:101A20000020108A4FF2FF0318400B884C88234394
:101A30008C882343CC8823431843108210BD002197
:101A4000018041808180C180704721B1828942F448
:101A50000052828104E082894DF6FF731A40828130
:101A60007047F0B503460024002600250020A1F5AC
:101A700010676A3F00D100BF1846C1F3421401F05D
:101A80001F06012707FA06F5012C01D10C3004E0EE
:101A9000022C01D1103000E014301AB107682F4336
:101AA000076002E00768AF430760F0BD10B51AB1E8
:101AB000838A0B43838204E0838ACC43A4B223400D
:101AC000838210BD028A4FF6F0731A400282028AA6
:101AD0000A430282704782894FF2FF731A40828163
:101AE00082890A438281704721B1828942F00202D1
:101AF000828104E082894FF6FD731A40828170472B
:101B0000028A4FF6DF731A400282028A0A43028277
:101B1000704721B1028A42F48042028204E0028AC4
:101B20004BF6FF731A4002827047C1F308028280AD
:101B3000704701468888C0F308007047818941F0EA
:101B4000010181817047028BD2B20283028B42EA8B
:101B5000012202837047028B02F47F420283028BD0
:101B60000A430283704721B1828A42F020028282B6
:101B700004E0828A4FF6DF731A408282704721B1F7
:101B8000828A42F01002828204E0828A4FF6EF736A
:101B90001A408282704721B1828A42F00802828212
:101BA00004E0828A4FF6F7731A408282704721B1AF
:101BB000828942F40042828103E08289C2F30E02EC
:101BC0008281704721B1828A42F40062828204E0FD
:101BD000828A4FF2FF731A4082827047828A4FF6E0
:101BE000FB731A408282828A0A438282704721B143
:101BF000828A42F00202828204E0828A4FF6FD73FA
:101C00001A408282704702460020B1F5007F00D161
:101C100000BF13880B4201D0012000E00020704774
:101C200001F40072B2F5007F00D100BFCA43028008
:101C3000704770B502460024002300250020A1F55E
:101C400010666A3E00D100BFC1F3421501F01F03C8
:101C5000012606FA03F3012D02D19689334006E0EE
:101C6000022D02D1168A334001E0968A33400C12CD
:101C7000012606FA04F41688344013B10CB1012091
:101C800000E0002070BD10B500220023A1F5106413
:101C90006A3C00D100BF0A1201249440A3B2DC4385
:101CA000048010BD0038014000440040004800405E
:101CB000004C00400050004000210020674A12689C
:101CC00042F48032654B1A6000BF644A126802F425
:101CD0000030491C10B9B1F5A06FF6D15F4A126807
:101CE00012F4003F01D0012000E00020012842D181
:101CF0005B4A126842F01002594B1A601A46126889
:101D000022F003021A601A46126842F002021A60B8
:101D1000524A5268514B5A601A4652685A601A46E3
:101D2000526842F480625A601A46526822F47C1269
:101D30005A601A46526842F4E8125A601A4612680B
:101D400042F080721A6000BF444A126812F0007FAD
:101D5000FAD0424A526822F00302404B5A601A46B7
:101D6000526842F002025A6000BF3C4A526802F0D8
:101D70000C02082AF9D1704710B5FFF79DFF10BD7E
:101D800010B53648006840F0010034490860084644
:101D90004068344908403149486008460068324983
:101DA00008402E4908600846006820F4802008603A
:101DB0000846406820F4FE0048604FF41F00886029
:101DC000FFF7DAFF4FF000602849086010BD10B53A
:101DD000002100200022214B5B6803F00C0121B19F
:101DE000042906D0082928D107E0214B214C236083
:101DF00027E01F4B1F4C236023E0184B5B6803F464
:101E00007010164B5B6803F48032022303EB9040A2
:101E100022B9194B4343174C23600DE00F4B5B680D
:101E200013F4003F04D0144B4343124C236003E0EF
:101E30000F4B43430F4C236003E00D4B0D4C2360CD
:101E400000BF00BF054B5B68C3F303130B4CE15CA1
:101E5000084B1B68CB40074C236010BD00100240AC
:101E6000002002400000FFF8FFFFF6FE08ED00E052
:101E700000127A001400002000093D001800002024
:101E8000014605E0002001E0421CD0B20A28FBDB3D
:101E90000A00A1F10101F5D1704710B5044603E035
:101EA0004FF47A70FFF7ECFF2000A4F10104F7D1A2
:101EB00010BD7047072000E0401E0028FCD170478D
:101EC00010B54FF40070E34908604FF48070E249A8
:101ED000C1F8100CFFF7EEFFE048006808B90120D8
:101EE00000E0002010F4007F01D0002010BD4FF46E
:101EF0000070DB490860FFF7DDFFD748D0F8080C19
:101F000010F4007F01D00020F0E74FF40070D449B6
:101F10000860FFF7CFFF0120E8E710B54FF48070AD
:101F2000CF490860FFF7C6FF4FF40070CA49C1F8F7
:101F3000140CFFF7BFFF4FF48070C6490860FFF72D
:101F4000B9FF4FF40070C449C1F8100CFFF7B2FF9D
:101F500010BD10B54FF48070C1490860FFF7AAFFAB
:101F60004FF40070BC49C1F8140CFFF7A3FF4FF405
:101F70008070B8490860FFF79DFF4FF48070B64944
:101F8000C1F8140CFFF796FF10BD10B54FF4807028
:101F9000B3490860FFF78EFF4FF40070AE49C1F8F7
:101FA000100CFFF787FF4FF48070AA490860FFF715
:101FB00081FF4FF48070A849C1F8140CFFF77AFF35
:101FC00010BD10B54FF48070A5490860FFF772FF8F
:101FD0004FF40070A049C1F8100CFFF76BFF4FF4ED
:101FE00080709C490860FFF765FF9B48D0F8080C9B
:101FF00010F4007F06D04FF48070994908604FF0CC
:10200000000010BD4FF48070954908604FF001004A
:10201000F7E770B5044608251BE04FF4807090493F
:102020000860FFF747FF14F0800F04D04FF40070F2
:102030008849086003E04FF4007089490860600631
:10204000040EFFF737FF4FF4807082490860FFF7F6
:1020500031FF2800A5F10101CDB2DED14FF480702F
:102060007F49086070BD70B508250024A801794932
:10207000086015E06006040E4FF48070784908602F
:10208000FFF718FF4FF480707349C1F8100CFFF789
:1020900011FF7248006810F4007F01D044F0010481
:1020A0002800A5F10101CDB2E4D14FF480706C4954
:1020B0000860204670BD08B501210820FEF7B3FC7A
:1020C0004FF44070ADF8000002208DF8020014209B
:1020D0008DF80300694661480838FEF7F1F908BD3C
:1020E0002DE9F04105460E4617469846FFF7E8FEF3
:1020F00010B90020BDE8F081002141EA4501C8B2D5
:10210000FFF787FFFFF75DFF18B9FFF706FF002015
:10211000F0E73046FFF77DFFFFF753FF00240BE0A9
:1021200018F80400FFF775FFFFF74BFF18B9FFF72A
:10213000F4FE0020DEE7641CBC42F1DBFFF7EDFE9D
:102140000120D7E72DE9F04104460D4616461F460B
:102150003B46324629462046FFF7C2FF10B1002019
:10216000BDE8F0814FF0FF30FAE72DE9F041054678
:102170000F4614461E46FFF7A3FE10B90020BDE827
:10218000F081002141EA4501C8B2FFF742FFFFF7A5
:1021900018FF18B9FFF7C1FE0020F0E73846FFF737
:1021A00038FFFFF70EFFFFF78BFE012101EB450122
:1021B000C8B2FFF72EFFFFF704FF0CE0FFF753FF55
:1021C0003070012C02D1FFF7E0FE01E0FFF7C1FE05
:1021D000761C601EC4B2002CF0D1FFF79EFE0120D9
:1021E000CDE72DE9F04104460D4616461F463B4615
:1021F000324629462046FFF7B8FF10B10020BDE85F
:10220000F0814FF0FF30FAE770B504460D461646F0
:10221000FFF756FE08B9002070BD002141EA4401D5
:10222000C8B2FFF7F6FEFFF7CCFE18B9FFF775FE50
:102230000020F1E72846FFF7ECFEFFF7C2FE30462C
:10224000FFF7E7FEFFF7BDFEFFF767FE0120E3E7BC
:1022500000207047100C014000000140080C0140B4
:10226000140C014041F61F4141F2883001F036FD67
:1022700001F070FD01F0C2FB01F0F9FB00F0BCF8C9
:1022800000F022F800F044F900F079F9FFF713FFAD
:102290000A2000F0BDFD00F0B1F900F063FD00F090
:1022A000C7FD10210748FEF7B8F94FF0E02000699C
:1022B00040F001004FF0E021086101E001F074F806
:1022C000FCE70000000C014008B501210820FEF7E2
:1022D000AAFB4FF47040ADF8000010208DF8030009
:1022E00003208DF802006946C048FEF7E9F84FF474
:1022F0007041BE48FEF78FF908BD08B501210846B8
:10230000FEF79EFB01210420FEF78DFB0C20ADF8AB
:10231000000018208DF8030003208DF802006946A4
:10232000B348FEF7CDF808BD30B587B000250024CE
:10233000FF20ADF814000320ADF810000020ADF828
:102340001600ADF8120004A94FF08040FEF7AAFC79
:102350006020ADF800000120ADF80200ADF8065095
:102360000020ADF8080069464FF08040FEF762FD9E
:102370000821C806FFF712F90120ADF80200ADF8F8
:10238000064069468007FEF79CFD0821C806FFF756
:102390000EF901218807FFF7BDF801218807FEF734
:1023A000B0FF07B030BD2DE9FF4104460D4627467A
:1023B0002E466020ADF800000120ADF80200ADF817
:1023C00006700020ADF8080069464FF08040FEF727
:1023D00031FD0821C806FFF7E1F80120ADF8020041
:1023E000ADF8066069468007FEF76BFD0821C80658
:1023F000FFF7DDF8BDE8FF8110B5FFF77EFFFFF7BF
:1024000093FF10BD00B587B001210220FEF718FB35
:1024100001210420FEF707FB6846FEF7DAF8C0202A
:10242000ADF8000004208DF8030069467048FEF7FF
:1024300047F87048FEF762FB04A8FEF73DFF002056
:10244000ADF810004FF6FF70ADF814000020ADF8A5
:102450001600ADF8120004A96648FEF723FC00231D
:102460001A4603216348FFF70EF801A8FEF737FF6D
:102470000020ADF80C0001A95E48FEF784FE0121A2
:102480005C48FEF73EFF07B000BD00B587B00121F4
:102490000420FEF7D5FA01210820FEF7C4FA6846A9
:1024A000FEF797F8C020ADF8000004208DF8030077
:1024B00069464E48FEF704F84F48FEF71FFB04A894
:1024C000FEF7FAFE0020ADF810004FF6FF70ADF8F1
:1024D00014000020ADF81600ADF8120004A946481B
:1024E000FEF7E0FB00231A4603214348FEF7CBFF2B
:1024F00001A8FEF7F4FE0020ADF80C0001A93E484B
:10250000FEF741FE01213C48FEF7FBFE07B000BD8F
:102510001FB501210420FEF786FA8020ADF80C00DB
:1025200004208DF80F0003208DF80E0003A9304819
:10253000FDF7C6FF01210220FEF782FA2D48FEF7C3
:10254000DDFA4FF6FF70ADF804000020ADF8000092
:10255000ADF80600ADF8020069462648FEF7A2FB7A
:1025600000231A4660212348FEF72BFF0021214853
:10257000FFF752F901211F48FEF7C3FE1FBD1FB52B
:1025800001210820FEF74FFA8020ADF80C0004204E
:102590008DF80F0003208DF80E0003A91348FDF7F6
:1025A0008FFF01210420FEF74BFA1348FEF7A6FA2D
:1025B0004FF6FF70ADF804000020ADF80000ADF854
:1025C0000600ADF8020069460B48FEF76BFB0023DE
:1025D0001A4660210848FEF7F4FE00210648FFF77E
:1025E0001BF901210448FEF78CFE1FBD000C0140C1
:1025F00000080140000400400008004070B50024BD
:1026000002F0A2F80446C4BB79A001F052FB782086
:1026100001F0FDFC18B97FA001F04BFB02E085A0A2
:1026200001F047FB782001F0DFFE18B98CA001F023
:1026300040FB02E093A001F03CFB642001F0B5FFF9
:1026400018B99CA001F035FB02E0A4A001F031FB19
:1026500003F082FB18B9AAA001F02BFB02E0B5A0A1
:1026600001F027FBC24804F068FA054603F07EFB40
:1026700020B9C0A001F01DFB03E026E0C7A001F0D7
:1026800018FB40F2731003F0C8FF18B9CFA001F097
:1026900010FB02E0D6A001F00CFB642003F036FD35
:1026A00018B9DFA001F005FB02E0E6A001F001FB94
:1026B00004F057FA012003F095F818B9ECA001F0E6
:1026C000F8FA02E0F3A001F0F4FA70BD2DE9F04F42
:1026D00089B0FB4BFB4ACDE90023FB4BFB4AFC498D
:1026E000FC4804F0F9F8F748008810F4807F7DD0AA
:1026F000F649086805F01CFF04464FF09D4105F0BF
:10270000E5FDF5490860F149486805F011FF044608
:102710004FF09D4105F0DAFDF0490860EB4988680B
:1027200005F006FF04464FF09D4105F0CFFDEC4952
:102730000860E649C86805F0FBFE04464FF09D417D
:1027400005F0C4FDE7490860E34801684FF08040A8
:1027500005F04EFF0690E2480168069805F048FF34
:102760008246DE4801684FF0404005F041FF069088
:10277000DC480168069805F03BFF8346514605F0AA
:1027800037FD079005F008FD804604F05BFC064627
:102790004FF06632D44B05F025FA044604F08AFF68
:1027A000D2490860CE4801684FF0804005F020FF14
:1027B0000390CB480168039805F01AFF8246C7488A
:1027C00001684FF0404005F013FF0390C3480168D3
:1027D000039805F00DFF8346514606F00DF881463B
:1027E0004FF07E5105F004FD804681E108E20000D3
:1027F0006D707520696E697469616C697A6174695C
:102800006F6E20636F6D706C6574652E2E2E2E2E8C
:102810002E0A20006D70755F7365745F73656E734B
:102820006F7220636F6D706C657465202E2E2E2E76
:102830002E2E0A006D70755F7365745F73656E731D
:102840006F7220636F6D65206163726F73732065B3
:1028500072726F72202E2E2E2E2E2E0A0000000075
:102860006D70755F636F6E6669677572655F6669C7
:10287000666F20636F6D706C657465202E2E2E2E32
:102880002E2E0A006D70755F636F6E6669677572D4
:10289000655F6669666F20636F6D65206163726F47
:1028A0007373206572726F72202E2E2E2E2E2E0ABA
:1028B000000000006D70755F7365745F73616D700B
:1028C0006C655F7261746520636F6D706C657465B3
:1028D000202E2E2E2E2E2E0A000000006D70755F09
:1028E0007365745F73616D706C655F726174652090
:1028F0006572726F72202E2E2E2E2E2E0A00000070
:10290000646D705F6C6F61645F6D6F74696F6E5F33
:102910006472697665725F6669726D77617265204F
:10292000636F6D706C657465202E2E2E2E2E2E0A10
:1029300000000000646D705F6C6F61645F6D6F74A8
:10294000696F6E5F6472697665725F6669726D77D2
:1029500061726520636F6D65206163726F737320B0
:102960006572726F72202E2E2E2E2E2E0A000000FF
:1029700028000020646D705F7365745F6F72696515
:102980006E746174696F6E20636F6D706C657465D1
:10299000202E2E2E2E2E2E0A00000000646D705F59
:1029A0007365745F6F7269656E746174696F6E20B0
:1029B000636F6D65206163726F7373206572726FF0
:1029C00072202E2E2E2E2E2E0A000000646D705FB7
:1029D000656E61626C655F666561747572652063C2
:1029E0006F6D706C657465202E2E2E2E2E2E0A00B3
:1029F000646D705F656E61626C655F66656174755C
:102A0000726520636F6D65206163726F73732065FB
:102A100072726F72202E2E2E2E2E2E0A00000000B3
:102A2000646D705F7365745F6669666F5F72617411
:102A30006520636F6D706C657465202E2E2E2E2EB2
:102A40002E0A0000646D705F7365745F6669666F5F
:102A50005F7261746520636F6D65206163726F736F
:102A600073206572726F72202E2E2E2E2E2E0A006B
:102A70006D70755F7365745F646D705F737461749E
:102A80006520636F6D706C657465202E2E2E2E2E62
:102A90002E0A00006D70755F7365745F646D705F02
:102AA000737461746520636F6D65206163726F7309
:102AB00073206572726F72202E2E2E2E2E2E0A001B
:102AC0006200002060000020500000206C01002007
:102AD0005A0000205400002034000020380000205C
:102AE0003C0000204000002066A64C40440000202E
:102AF00005F052FBCDE90401434801684FF08040E6
:102B000005F076FD834641480168584605F070FDA2
:102B100081463F4801684FF0804005F069FD8346DB
:102B20003C480168584605F063FD8246494605F079
:102B30005FFB804605F030FB0446DDE9042304F02A
:102B4000D3FC4FF06632344BCDE9060105F04AF86C
:102B5000064604F0AFFD314908602E480168006860
:102B600005F046FD03902A480168006805F040FD25
:102B7000029026480168006805F03AFD8346224825
:102B80000168006805F034FD5946019005F030FBFE
:102B90008246029905F030FE8146039905F02CFE2D
:102BA000804605F0F9FA04460D461A4801681648B1
:102BB000006805F01DFD824615480168134800684D
:102BC00005F016FD8346514605F012FB81464FF095
:102BD000804105F00DFD804605F0DEFA06462246EE
:102BE0002B4604F081FC4FF066320B4BCDE904011B
:102BF00004F0F8FFCDE9060104F05CFD0849086027
:102C000009B0BDE8F08F000034000020380000203B
:102C10003C0000204000002066A64C4048000020F8
:102C20004C000020704700BFFEE700BFFEE700BF7A
:102C3000FEE700BFFEE770477047704710B5414898
:102C40000078401C3F4908703F480078401C3E49CE
:102C5000087000F089FB3D480078401C3B49087033
:102C600000F0D1FC3A480078401C3949087000F067
:102C700044FE38480078401C3649087031480078D6
:102C8000052815DB00202F49087000F02BFA314889
:102C90000078401C2F490870084600780C284FDB4C
:102CA00001F0C5F800F049FE00202A49087047E00D
:102CB00024480078012802D1FFF708FD40E02148B0
:102CC0000078022804D100F0F8F800F079F937E034
:102CD0001C480078032810D11F480078401C1E496A
:102CE0000870084600780A282ADB00F03BFA00202A
:102CF000194908701449087022E012480078042825
:102D00001ED116480078401C1449087014480078F9
:102D1000401C1349087008460078032805DB002092
:102D200008700B49087000F08EFC0C4800780528EC
:102D300006DB0020094908700449087000F087FB91
:102D400010BD7047A9000020AB000020AC0000209F
:102D5000B0000020AE000020AA000020AD0000203E
:102D6000AF000020264909684FF47A72B1FBF2F0F7
:102D7000B0F1807F01D301211CE020F07F41491E8A
:102D80004FF0E022516100BF5117002905DA0F21F1
:102D900009011C4A0B23D15404E00F2109011A4AEE
:102DA0005317D15400BF00214FF0E0229161072159
:102DB0001161002109B100BFFEE74FF0E02000697A
:102DC00020F001004FF0E021086170470F490860D2
:102DD0004FF0E021096941F001014FF0E02211615B
:102DE00000BF0A4909680029FBD1704707480068FD
:102DF00020B106480068401E044908607047000082
:102E00001400002018ED00E000E400E06400002061
:102E1000002107E042F6E06100BF0A00A1F10103D2
:102E200099B2FAD10200A0F1010398B2F2D1704731
:102E30000020FF490880FF490880FF490860FF49DA
:102E40000860FF490860FF490860FF490860FF49C2
:102E50000860FF490860FF490860FF490860FF49B2
:102E60000860FF490860FF490860FF490860FF49A2
:102E70000860FF490860FF490860FF490860FF4992
:102E80000860FF490860FF490870FF490860FF4972
:102E90000860FF490860FF490870FF490870FF4952
:102EA0000870FF490860FF490860FF490860FF4952
:102EB0000860FF48FF490860704770B50021FE4870
:102EC000006805F099FCE1490860FC49B1F900008F
:102ED00005F02EFB0646FA480168304605F088FBEF
:102EE0000446F8480168D948006805F081FB0546AA
:102EF000214605F07DF9D849086070BD2DE9F04103
:102F000004460D46002C0CDA4FF40041EE48FDF764
:102F100082FB4FF48041EC48FDF77FFB604204B236
:102F20000AE04FF48041E848FDF775FB4FF400419B
:102F3000E548FDF772FB00BF002D0CDA4FF480511D
:102F4000E148FDF768FB4FF40051DF48FDF765FBF2
:102F5000684205B20AE04FF40051DB48FDF75BFB25
:102F60004FF48051D848FDF758FB00BFAFB2A6B26E
:102F7000FF2F00DDFF27FF2E00DDFF2639464FF033
:102F80008040FEF751FC31464FF08040FEF74EFC8A
:102F9000CE49AE48006805F0FEFB05D3CC49AB48EE
:102FA000006805F0F1FA09D200214FF08040FEF7E9
:102FB0003BFC00214FF08040FEF738FCBDE8F0817B
:102FC00070B5B048007801281FD1A2480168A24816
:102FD000006805F011FC0446AC480168204605F085
:102FE0000BFC9F4908609B4801689B48006805F0FE
:102FF00003FC0446A5480168204605F0F9F8974906
:10300000086000209F49087033E09D48006801284F
:103010001FD1904801689048006805F0EDFB044618
:1030200096480168204605F0E3F88D490860894814
:1030300001688948006805F0DFFB04468F48016895
:10304000204605F0D9FB8549086000208C490860BE
:103050000FE0804801688048006805F0CDFB80499A
:1030600008607C4801687C48006805F0C5FB7B4926
:1030700008607B48006805F01FFA00B2FA2802DDFC
:103080009448774908607648006805F015FA00B260
:1030900010F1FA0F02DA9048714908606F48006831
:1030A00005F00AFA00B2FA2802DD8A486B49086086
:1030B0006A48006805F000FA00B210F1FA0F02DA6F
:1030C0008548664908606548006805F0F5F904B26E
:1030D0006348006805F0F0F905B221462846FFF77D
:1030E0000DFF70BD70B57D48FEF7B9FB04467C4806
:1030F000FEF7B5FB054600207A4908804FF0804175
:10310000A1F8240820B24B49088028B24849088019
:103110004FF000015248006805F03DFB05D34548DB
:103120000088404200B24349088000214B480068B3
:1031300005F031FB05D33E480088404200B23C49CF
:1031400008803E4800683B49B1F9001008443B49FB
:103150000860394800683649B1F90010084436491A
:10316000086070BD2DE9F05F34490968324A126881
:10317000881804F0E3FC064600225B4B04F032FDA5
:10318000044604F097FA2F49086000202A49086095
:103190002A4908602B48006804F0FEFF04464FF0FF
:1031A0003332524B04F01EFD06460F462448006899
:1031B00004F0F2FF04464FF066324D4B04F012FD6E
:1031C000804632463B4604F0A7FA824604F072FA83
:1031D0001C490860084600681949086019480068D9
:1031E00004F0DAFF0646434A434B04F0FBFC044676
:1031F00004F060FA13490860084601681248006844
:1032000004F0F6FF10490860164801680E4800688F
:1032100004F0EEFF0C490860214801680A48006884
:1032200004F0E6FF084908600846006866E0000010
:10323000D6000020D4000020E4000020E0000020A0
:10324000EC000020E8000020F0000020CC0000206E
:1032500000010020B4000020C0000020C8000020B1
:10326000C4000020F4000020100100200C01002008
:103270000801002004010020F8000020FC000020CC
:1032800020010020B1000020180100201C010020B6
:1032900014010020A9000020AA000020AB0000209B
:1032A00028010020240100202C01002030010020F2
:1032B0000000F041340100204800002054000020AC
:1032C0006C00002068000020000C01400000344326
:1032D000000034C300007A4300007AC300040040B9
:1032E00000080040240400400000E03F3333D33F97
:1032F0006666E63FB76DDBB66DDBA63F05F0DCF832
:1033000040F6C411884202DDFE48FF490860FE48CD
:10331000006805F0D1F8FD49884202DAFC48FA4914
:103320000860FC480068FC490860F7480168002014
:1033300005F062FA0646F9480168304605F058F98A
:103340000446F7480168002005F056FA0646F5489D
:103350000168304605F04CF90546214604F048FF67
:10336000EC490860BDE8F09F2DE9F041EA480168AA
:10337000E848006805F040FA0646EB480078401C33
:1033800005F0D6F80746314605F032F90546E7491B
:1033900004F09CFF0446E0480168204604F028FF42
:1033A000E3490860BDE8F08110B500BF2021E14885
:1033B000FEF729FC0128F9D1DF480088C4B24FF09C
:1033C0002001DC48FEF72CFC0A2C32D2DFE804F0A6
:1033D0003105090D12171C21272DD848D84908603E
:1033E00033E0D848D64908602FE04FF07E50D649E8
:1033F00008602AE04FF07E50D449086025E04FF085
:103400007E50D349086020E04FF07E50D1490860DB
:103410001BE00020CE490860CE49086015E000207E
:10342000C9490860C94908600FE00020C449086024
:103430000BE00020C2490860C6490860C449086022
:10344000C1490860C149086000BF00BF10BD2DE937
:10345000F05FC1480068C1490860C148B0F9040084
:10346000B0F5004F04DDBE48808800B2BC498880BA
:103470000020BC4908604FF07E51B348006804F05A
:10348000E7FF01D1012400E000244FF07E51AF4856
:10349000006804F0DDFF01D1012000E000200443BA
:1034A0003AD00120AF490860AF480068401CAE49DF
:1034B000086001281DD1AD49B1F90010AC4AB2F93C
:1034C0000020881805F034F8AA4908600021A948AE
:1034D000006805F059F805D2A648006880F0004061
:1034E000A5490860A4480168A44804F0EFFEA44977
:1034F0000860A449A248006805F046F802D2A24834
:103500009F490860A0499E48006805F044F910D220
:103510009E489B4908600CE04FF07E509849086037
:1035200000209B490860904908609A4908609149C9
:1035300008604FF07E518448006804F089FF08D18C
:103540008F4801689348006804F052FE9149086072
:1035500012E04FF07E517D48006804F079FF08D1F9
:10356000874801688B48006805F046F9894908607A
:1035700002E00020874908608748006804F0D8FF0F
:10358000044684480168204604F0FEFF05D28248C4
:10359000006804F0CDFF7F4908607F480068404222
:1035A00004F0C6FF04467B480168204605F0F3F8A6
:1035B00006D279480068404204F0BAFF75490860B5
:1035C0006749B1F9040004F0B9FA8046734A744BB4
:1035D00004F008FB04460D466E48006880F0004980
:1035E0007049484605F004F8804604F0D5FD0646CB
:1035F00022462B4604F0E6FC824604F05BF857496D
:103600000860BDE8F09F2DE9F04153480168534838
:10361000006805F0F1F8064663480078401C04F0A5
:1036200087FF0746314604F0E3FF05465F4904F093
:103630004DFE044648480168204604F0D9FD5C4927
:103640000860BDE8F0812DE9FC5F4FF0640A0020BE
:103650005849087058480068584908604048B0F90F
:103660000400B0F5004F04DD3D48808800B23C49BD
:1036700088804FF07E513648006804F0E9FE01D1A1
:10368000012400E000244FF07E513248006804F02D
:10369000DFFE01D1012000E00020044330D00120F2
:1036A000444908700BF101008346012829D12F49B4
:1036B000B1F900102E4AB2F90020881804F038FF42
:1036C0003F4908602949B1F90010294AB2F90020A0
:1036D000881A04F02DFF3B49086000213848006833
:1036E00004F052FF05D23648006880F000403649A9
:1036F000086000213348006804F046FF6DD266E0A0
:1037000088E072E000401C45F00000203CF6FFFF1E
:1037100000401CC5BC000020B80000207400002040
:10372000E800002070000020AB00002000004842AC
:10373000B40000200048004004480040000052430C
:10374000F4000020000048C304010020080100200C
:103750000C01002010010020F8000020FC000020D7
:10376000540000202001002088000020D400002008
:10377000D600002078000020840000200000C8430C
:103780007C000020000040400000A04000002041DC
:103790001C010020800000208C0000209A9999993B
:1037A0009999D93F00009841AC0000200000C84121
:1037B00000010020B10000201401002018010020A9
:1037C000900000209C000020A000002005E073482D
:1037D000006880F0004072490860724801687048D3
:1037E000006804F073FD704908604FF07E516E4828
:1037F000006804F0C9FE03D24FF07E506A490860A9
:103800006A496948006804F0C6FF0FD267486649F4
:1038100008600BE04FF07E50634908600020644967
:103820000860834663490860634908604FF07E5131
:103830006248006804F00CFE08D15B4801685D48EE
:10384000006804F0D5FC5B49086012E04FF07E513F
:103850005B48006804F0FCFD08D1534801685548F6
:10386000006804F0C9FF5349086002E00020514994
:103870000860504604F05CFE04464E48016820464D
:1038800004F082FE04D2504604F052FE494908601A
:10389000CAF1000004F04CFE044646480168204688
:1038A00004F079FF05D2CAF1000004F041FE41495D
:1038B00008604449B1F9040004F040F90646424A60
:1038C000424B04F08FF904460D463A48006880F0F8
:1038D00000473F49384604F08BFE064604F05CFC86
:1038E000804622462B4604F06DFBCDE9000103F033
:1038F000E1FE38490860BDE8FC9F2DE9F0413648FB
:1039000001683448006804F077FF064633480078C1
:10391000401C04F00DFE0746314604F069FE0546E2
:103920002F4904F0D3FC04462B480168204604F0DC
:103930005FFC1F490860BDE8F0812DE9F04129488E
:10394000FDF78DFF002826DD2648FDF788FF00EBF8
:10395000800000EB00104FEA4008404604F0EEF80B
:1039600004460022204B03F091FF064603F0A2FE1E
:103970001E4908600846006804F00EFC0446002258
:103980001B4B04F0F3F803D81A481B49086002E007
:10399000002019490860BDE8F08100009C0000206B
:1039A000A4000020A0000020940000200000A040FF
:1039B0001C01002098000020900000200C01002035
:1039C00010010020540000209A9999999999D93FA3
:1039D000000098411401002018010020B0000020D0
:1039E00000007041002C01400000694038010020B7
:1039F000000020400000C8C22801002000B585B0AA
:103A0000012144F20400FDF70EF84FF40070ADF808
:103A1000100018208DF8130003208DF8120004A95F
:103A2000AA48FCF74DFD4FF48060ADF8100004206B
:103A30008DF8130004A9A548FCF742FD4FF4165079
:103A400000900020ADF80400ADF80600ADF80800C5
:103A5000ADF80C000C20ADF80A0069469C48FDF753
:103A600068FF01219A48FDF7F0FF05B000BD00B5E1
:103A700085B001218804FCF7E3FF01210820FCF751
:103A8000D2FF4FF48060ADF8100018208DF81300BD
:103A900003208DF8120004A98E48FCF711FD4FF4A5
:103AA0000060ADF8100004208DF8130004A98948C7
:103AB000FCF706FD4FF4165000900020ADF804000E
:103AC000ADF80600ADF80800ADF80C000C20ADF81C
:103AD0000A0069468048FDF72CFF01217E48FDF76A
:103AE000B4FF05B000BD08B54FF4E060FCF76EFB15
:103AF00027208DF8000000208DF8010001208DF8AE
:103B000002008DF803006846FCF765FB08BD70B540
:103B100004460D46E1B26E48FEF707F800BF4021AB
:103B20006B48FEF770F80128F9D1204670BDF0B55A
:103B300003460D461646002729460A2E03D00020CC
:103B400008702846F0BD33B9302001F8010B002081
:103B500008702846F6E7002B03DA2D2001F8010B48
:103B60005B4242F210720DE093FBF2F404B937B1FC
:103B700004F1300001F8010B04FB123301270A2085
:103B800092FBF0F2002AEFDC002008702846D9E70B
:103B90000FB470B586B006460CA8019073E00B9880
:103BA00000785C281CD10B98401C0B9000786E2884
:103BB00009D072280FD10D213046FDF7B6FF0B98C2
:103BC000401C0B900BE00A213046FDF7AEFF0B982E
:103BD000401C0B9003E00B98401C0B9000BF4BE087
:103BE0000B980078252840D10B98401C0B9000784A
:103BF000642818D0732833D1019810C801900BE0C5
:103C000021783046FDF791FF00BF40213046FDF797
:103C1000FAFF0028F9D0641C20780028F0D10B9816
:103C2000401C0B9020E0019820C801900A2202A9B4
:103C30002846FFF77CFF02AC0BE021783046FDF709
:103C400074FF00BF40213046FDF7DDFF0028F9D0AA
:103C5000641C20780028F0D10B98401C0B9003E0E6
:103C60000B98401C0B9000BF06E00B9810F8011B4E
:103C70000B903046FDF759FF00BF40213046FDF75D
:103C8000C2FF0028F9D00B980078002887D106B031
:103C900070BC5DF814FB10B5044621460C48FDF7D6
:103CA00044FF00BF40210A48FDF7ADFF0128F9D1CC
:103CB00010BD70B505462C4603E02078FFF7EBFFFA
:103CC000641C20780028F8D170BD00000008014075
:103CD00000380140000C0140004800407FB5044618
:103CE0000D460121C802FCF79EFE41F28830ADF876
:103CF000080041F61F40ADF804000120ADF80A00AD
:103D00000020ADF8060001A91148FCF7CBFF012205
:103D100041210F48FDF71BFB19208DF800000320FF
:103D20008DF8010000208DF8020001208DF80300BD
:103D30006846FCF750FA7FBD10B501210448FDF735
:103D4000A0FD18B101210248FDF7ACFD10BD000037
:103D5000002C01401FB501210920FCF764FE012061
:103D6000ADF80C0010208DF80F0003208DF80E0028
:103D700003A93548FCF7A4FB0220ADF80C0028206D
:103D80008DF80F0003A93048FCF79AFB0121084683
:103D9000FCF7AAFC0220019000208DF80800082002
:103DA0008DF8090001208DF80A0001A8FCF799FAA6
:103DB00007208DF8000003208DF8010001208DF808
:103DC00002008DF803006846FCF705FA1FBD10B528
:103DD0000220FCF7F3FA48B300211C48FDF71CFD54
:103DE00001211A48FDF78DFA01201949086012E0F7
:103DF0001648FDF734FD0A2807DB00211348FDF7BC
:103E000080FA00201249086005E002210E48FCF704
:103E1000E8FB0F4908600E4800680028E8D100213F
:103E20000A48FDF76EFA0220FCF7D9FA10BD10B56A
:103E300001210548FCF7EFFB0B20FEF721F80121DB
:103E40000148FCF7EAFB10BD000C0140002C0140CA
:103E50003C0100200948804709480047FEE7FEE78B
:103E6000FEE7FEE7FEE7FEE7FEE7FEE7FEE7FEE72A
:103E700004480549054A064B70470000811D0008AB
:103E8000ED000008F0010020F0070020F003002002
:103E9000F003002038B50446FB4890F82400C0B178
:103EA00014B10220009001E000200090F64A126850
:103EB000D17BF54A526810786B460122FEF742F931
:103EC00010B14FF0FF3038BD9DF80010EE4841743E
:103ED00023E0ED48807A10B94FF0FF30F3E724B1CA
:103EE000E948407C08B10020EDE714B101200090C2
:103EF00001E000200090E44A1268D17BE24A526857
:103F000010786B460122FEF71DF910B14FF0FF301B
:103F1000D9E79DF80010DC4841740020D3E738B59C
:103F2000002419E0D8480068C07AA04204D0D648DE
:103F30000068407DA04200D10CE0D3494968087870
:103F40006B4601222146FEF74CF910B14FF0FF30CD
:103F500038BD00BF601CC4B2CB4840680079A042A5
:103F6000E0DC0020F4E770B504460D46C648006862
:103F7000C07AA04204D0C4480068407DA04202D16B
:103F80004FF0FF3070BDC04840680079A04202DCAD
:103F90004FF0FF30F6E7BC49496808782B4601220C
:103FA0002146FEF71EF9EDE738B50446B64890F80D
:103FB0002300A04201D1002038BD14B13020009070
:103FC00001E000200090B048807C20B19DF8000006
:103FD00040F002000090AC4890F8220020B19DF81B
:103FE000000040F080000090A74A1268117DA64AA8
:103FF000526810786B460122FEF7A4F810B14FF01A
:10400000FF30D9E7A04880F823400020D4E738B536
:10401000044614F0700F02D00120009005E014B1A6
:104020000020009001E040200090974A1268917CA7
:10403000954A526810786B460122FEF783F820B14A
:10404000002191488172481E38BD9DF8000020F083
:1040500040008D4908730020009014F0400F04D1F7
:104060009DF8000040F00400009014F0200F04D1EF
:104070009DF8000040F00200009014F0100F04D1F1
:104080009DF8000040F00100009014F0080F04D1EA
:104090009DF8000040F0380000907B4A1268D17C07
:1040A000794A526810786B460122FEF74BF820B12E
:1040B000002175488172481EC6E724B1082C02D041
:1040C0000020FFF771FF70488472002101753220D3
:1040D000FDF7E3FE0020B7E738B504466A48807C68
:1040E000A04201D1002038BDF4B3674A12681179AB
:1040F000654A526810786B460122FEF772F810B1DB
:104100004FF0FF30EFE79DF8000020F02000009016
:104110005D4A126811795C4A526810786B46012238
:10412000FEF710F810B14FF0FF30DCE70320FDF789
:10413000B4FE02200090544890F8220020B19DF86F
:10414000000040F0800000904F4890F8230020B11C
:104150009DF8000040F0300000904B4A1268117D3D
:10416000494A5268107800E007E06B460122FDF7EB
:10417000E9FFC0B34FF0FF30B5E7434A1268117949
:10418000414A526810786B460122FEF72AF810B1B6
:104190004FF0FF30A7E73C48807A10F0010F05D0C0
:1041A0009DF8000040F02000009004E09DF8000021
:1041B00020F020000090344A12681179324A526887
:1041C00010786B460122FDF7BDFF10B14FF0FF30B4
:1041D00089E70320FDF761FE2B4890F8220018B113
:1041E0008020009002E018E000200090264890F81F
:1041F000230020B19DF8000040F030000090224ADA
:104200001268117D204A526810786B460122FDF732
:1042100099FF10B14FF0FF3065E71B488474002010
:1042200061E708B51848807A10B94FF0FF3008BD33
:1042300000200090144A1268D17B134A526810780B
:104240006B460122FDF77EFF10B14FF0FF30EEE725
:104250000D4A126851790C4A526810786B46012257
:10426000FDF770FF10B14FF0FF30E0E7064A12682B
:104270001179054A526810786B460122FDF762FFFA
:1042800020B14FF0FF30D2E740010020F84890F80D
:10429000240090B30C200090F54A12681179F44A7A
:1042A000526810786B460122FDF74CFF10B14FF0B9
:1042B000FF30BCE73220FDF7F0FDC0200090EC4855
:1042C000807A10F0010F04D09DF8000040F020002B
:1042D0000090E74A12681179E54A526810786B46F7
:1042E0000122FDF72FFF10B14FF0FF309FE7E048AC
:1042F000407C18B10220009002E01FE000200090F6
:10430000DB4A1268D17BDA4A526810786B46012288
:10431000FDF718FF10B14FF0FF3088E70020009044
:10432000D34A12685179D24A526810786B460122FA
:10433000FDF708FFB0B34FF0FF3078E7042000909E
:10434000CB4A12681179CA4A526810786B4601222A
:10435000FDF7F8FE10B14FF0FF3068E7C448807CED
:1043600020B9C348807A10F0010F02D1402000909C
:1043700001E060200090BE4A12681179BC4A526880
:1043800010786B460122FDF7DDFE10B14FF0FF30D3
:104390004DE73220FDF781FDB548407C18B1012082
:1043A000009002E01EE000200090B14A1268D17B2C
:1043B000AF4A526810786B460122FDF7C3FE10B178
:1043C0004FF0FF3033E7AA4A12685179A84A526881
:1043D0001078A74B10330122FDF7B4FE10B14FF057
:1043E000FF3024E7002022E770B50446002624F0C1
:1043F00001049F4890F8240008B1002070BD9C483B
:10440000807A10B94FF0FF30F8E79948057C807A40
:104410002040974908740846007CA04202D04FF023
:10442000FF3600E0002614B99148007D18B1012044
:10443000FFF730FD02E00020FFF72CFD3CB1FFF755
:10444000F0FE20B18A4805744FF0FF30D6E73046C1
:10445000D4E738B504468648807A10B94FF0FF306B
:1044600038BDBC2C02DB0120009015E0622C02DB81
:104470000220009010E02A2C02DB032000900BE0C9
:10448000142C02DB0420009006E00A2C02DB05203D
:10449000009001E0062000907548C07A9DF8001059
:1044A000884201D10020DBE7714A12689178704A96
:1044B000526810786B460122FDF744FE10B14FF0B0
:1044C000FF30CDE79DF800106948C1720020C7E7B2
:1044D00038B50446282C02DD4FF0FF3038BDDCB97A
:1044E0000020FFF761FD00208DF8000007208DF807
:1044F00001005F4A1268917C5D4A526810786B46F1
:104500000222FDF71FFE10B14FF0FF30E6E7002159
:10451000574801750020E1E70120FFF745FD202005
:104520008DF80000012C06D100208DF80100052037
:10453000FFF78FFF17E0052C06DC01208DF8010046
:104540000520FFF786FF0EE0142C06DC02208DF814
:1045500001000A20FFF77DFF05E003208DF8010030
:104560001420FFF776FF9DF80100072101EB801072
:10457000C0B28DF801003E4A1268917C3C4A5268F4
:1045800010786B460222FDF7DDFD10B14FF0FF30D1
:10459000A4E70821364881720021017301210175C9
:1045A0000020FFF721FF002098E738B50446304887
:1045B000807A10B94FF0FF3038BD2D4890F82400B4
:1045C00010B14FF0FF30F7E72948007D50B134B10A
:1045D000282C04DCE0B2FFF77BFF0020ECE7002092
:1045E000FFF776FF042C01DA042404E0B4F57A7FA7
:1045F00001DD4FF47A744FF47A7090FBF4F0401EB2
:10460000C0B200901A4A12685178194A526810785C
:104610006B460122FDF796FD10B14FF0FF30CBE75E
:104620009DF80000401C4FF47A7191FBF0F081B2CC
:104630000F48C1810146C9894810FFF70AFF0020D1
:10464000BAE738B504460A48807A10B94FF0FF300F
:1046500038BD022C06D0042C07D0082C0AD0102C10
:104660000ED10AE0002000900DE0082000900AE042
:10467000400100201020009005E01820009002E08A
:104680004FF0FF30E4E700BFF948407A9DF8001092
:10469000B0EBE10F01D10020DAE7F54A1268D179D9
:1046A000F34A526810786B460122FDF74BFD10B1BA
:1046B0004FF0FF30CCE79DF80000C010EC49487285
:1046C0000020C5E738B50446E948807A10B94FF0B4
:1046D000FF3038BDFA2C09D0B4F5FA7F09D0B4F513
:1046E0007A7F09D0B4F5FA6F0CD108E00020009071
:1046F0000BE00820009008E01020009005E0182052
:10470000009002E04FF0FF30E3E700BFD848007AA6
:104710009DF80010B0EBE10F01D10020D9E7D44A99
:1047200012689179D24A526810786B460122FDF7DF
:1047300009FD10B14FF0FF30CBE79DF80000C0102D
:10474000CB4908720020C4E71CB580208DF800001A
:10475000C74A1268917CC64A526810786B4601229B
:10476000FDF7F0FC10B14FF0FF301CBD6420FDF7E9
:1047700094FB00208DF80000BD4A1268917CBC4A71
:10478000526810786B460122FDF7DCFC10B14FF047
:10479000FF30EAE7B64A1268917DB54A5268107850
:1047A0006B460622FDF71DFD10B14FF0FF30DCE730
:1047B0009DF80500C007400F9DF8031001F00101AE
:1047C00040EA41009DF8011001F0010140EA0104B6
:1047D0008CB1012C03D10121A548C17430E0022C19
:1047E00003D10021A248C1742AE0A2A0FFF761FA18
:1047F0004FF0FF30B9E79E4A1268D1789C4A526860
:1048000010786B460122FDF7ECFC10B14FF0FF3041
:10481000ABE79DF8000000F00F042CB99F48FFF7AC
:1048200048FA4FF0FF30A0E7042C06D19CA0FFF718
:1048300040FA01218E48C17402E000218C48C17405
:10484000FF218B488172FF2089490872FF21884827
:104850004172C1724FF6FF71C181FF2101748174F1
:104860000121017380F82210002180F82310417586
:1048700001750830C0F80E10C0F81210C0F81610FC
:10488000083880F8241080F82510C1844FF4FA60AD
:10489000FFF718FF10B14FF0FF3066E70220FFF777
:1048A000D0FE10B14FF0FF305FE72A20FFF7D1FDB7
:1048B00010B14FF0FF3058E73220FFF776FE10B10D
:1048C0004FF0FF3051E70020FFF78EFD10B14FF0A1
:1048D000FF304AE70020FFF7FFFB10B14FF0FF3039
:1048E00043E70020FFF793FB00203EE77CB504463A
:1048F0000D465F48807A10F0700F02D14FF0FF3004
:104900007CBD5B4A1268117B594A526810786B462D
:104910000622FDF766FC10B14FF0FF30F0E79DF87E
:1049200001009DF8001040EA012000B220809DF8AF
:1049300003009DF8021040EA012000B260809DF85B
:1049400005009DF8041040EA012000B2A08015B1D6
:104950002846FDF7AEFA0020D2E77CB504460D46A6
:104960004348807A10F0080F02D14FF0FF307CBD31
:104970003F4A1268517B3E4A526810786B460622C5
:10498000FDF72FFC10B14FF0FF30F0E79DF801006C
:104990009DF8001040EA012000B220809DF803003D
:1049A0009DF8021040EA012000B260809DF80500E9
:1049B0009DF8041040EA012000B2A08015B12846FD
:1049C000FDF777FA0020D2E72DE9FE4F05460C46A9
:1049D0002748807A18B94FF0FF30BDE8FE8F244A8F
:1049E0001268917B224A5268107802AB0222FDF7CE
:1049F000F8FB10B14FF0FF30EFE79DF809009DF88C
:104A0000081040EA012006B214B12046FDF751FA21
:104A100017494968C88803F0A3FD15490190496802
:104A2000B1F9080003F084FD8346304603F080FDB1
:104A30005946009003F0E0FE8246019903F046FCDF
:104A400081461F4903F0D4FB80464FF08F4103F0AD
:104A5000CFFD074603F030FD28600020BDE710B50C
:104A600088B004461CB94FF0FF3008B010BD29E0F3
:104A700040010020556E737570706F72746564200C
:104A8000736F6674776172652070726F647563749A
:104A9000207265762025642E0A000000288A00080E
:104AA00048616C662073656E7369746976697479A0
:104AB000207061727420666F756E642E0A000000AB
:104AC00000000C42206830B9606820B9A06810B9B5
:104AD000002008B010BDFA494968087806AB0322E7
:104AE0001146FDF77EFB10B14FF0FF30F1E79DF866
:104AF0001800082101EB201000F00F00ADF80000B5
:104B00009DF8190001EB201000F00F00ADF8020035
:104B10009DF81A0001EB201000F00F00ADF8040022
:104B200020684100BDF90000403091FBF0F000B278
:104B3000ADF8100060684100BDF90200403091FB03
:104B4000F0F000B2ADF81200A0684100BDF9040019
:104B5000403091FBF0F000B2ADF81400D84949683C
:104B6000087806AB06221146FDF73BFB10B14FF06B
:104B7000FF30AEE79DF819009DF8181040EA0120BB
:104B800000B2ADF808009DF81B009DF81A1040EA2D
:104B9000012000B2ADF80A009DF81D009DF81C1020
:104BA00040EA012000B2ADF80C00BDF81000BDF8DD
:104BB0000810084400B2ADF81000BDF81200BDF8AE
:104BC0000A10084400B2ADF81200BDF81400BDF898
:104BD0000C10084400B2ADF81400BDF81000000A33
:104BE0008DF81800BDF81000C0B28DF81900BDF89E
:104BF0001200000A8DF81A00BDF81200C0B28DF83C
:104C00001B00BDF81400000A8DF81C00BDF814004C
:104C1000C0B28DF81D00AA494968087806AB062283
:104C20001146FDF78FFA10B14FF0FF3051E7002029
:104C30004FE70146A248007A30B1012807D0022888
:104C400009D003280FD10AE0FA2008800EE04FF4C3
:104C5000FA7008800AE04FF47A70088006E04FF49A
:104C6000FA60088002E00020088000BF00BF00203A
:104C7000704701469248407A30B1012807D0022897
:104C800008D003280CD108E0022008700BE00420B3
:104C9000087008E00820087005E01020087002E0A5
:104CA0004FF0FF30704700BF8548C07C18B10878CE
:104CB0004006000E08700020F4E701468048C07AE4
:104CC000082817D2DFE800F01704070A0D101318A0
:104CD000BC20088013E06220088010E02A200880B1
:104CE0000DE0142008800AE00A20088007E0052073
:104CF000088004E000BF00BF0020088000BF00BFA4
:104D00000020704701466E4890F8240010B14FF023
:104D1000FF3070476A48C08908800020F9E70146E3
:104D200000200880401E704701464FF0FF3070475A
:104D300001466348007A30B1012807D0022808D024
:104D400003280CD108E05F4808600BE05E4808606B
:104D500008E05E48086005E05D48086002E04FF04A
:104D6000FF30704700BF0020FBE701465448407AFF
:104D700030B1012808D002280AD0032810D10BE056
:104D80004FF4804008800EE041F69C7008800AE0F5
:104D90004FF48050088006E04FF40060088002E085
:104DA0004FF0FF30704700BF4548C07C10B1088805
:104DB000401008800020F5E701464148007C08705B
:104DC0000020704701463E48807A10B101200870EB
:104DD00001E0002008700020704738B504463848CC
:104DE000807A10B94FF0FF3038BD354A1268117C17
:104DF000334A526810786B460222FDF7F2F910B17F
:104E00004FF0FF30F0E79DF801009DF8001040EAF8
:104E1000012000B220800020E6E72DE9FE4F804609
:104E2000894692461D46DDF830B00026002424480D
:104E300090F8240010B1601EBDE8FE8F002028709D
:104E40001F48807A10B94FF0FF30F5E71C48007C0E
:104E500010B94FF0FF30EFE71948007C10F0400F19
:104E600001D0B01CC6B21648007C10F0200F01D053
:104E7000B01CC6B21248007C10F0100F01D0B01C5C
:104E8000C6B20F48007C10F0080F01D0B01DC6B2AA
:104E90000B4A1268917A0A4A526810786B460222CD
:104EA000FDF79FF910B14FF0FF30C5E79DF8010005
:104EB0009DF8001040EA0127B7420BDA0020BBE75B
:104EC00040010020000003430000834233330342CB
:104ED00033338341FB4840684088B7EB600F17DDF0
:104EE000F84A1268517CF74A526810786B460122E2
:104EF000FDF777F910B14FF0FF309DE79DF8000006
:104F000010F0100F04D0FFF78CF96FF0010093E759
:104F10005046FCF7CEFFEB4A1268D17AE94A526854
:104F200010786B463246FDF75CF910B14FF0FF3058
:104F300082E797FBF6F0401E8BF8000000202870F7
:104F4000B4422AD0DF48007C10F0080F25D0601C46
:104F50001DF800001DF8041040EA012000B2A9F875
:104F60000000E01C1DF80010A01C1DF8000041EA24
:104F7000002000B2A9F80200601D1DF80010201DDD
:104F80001DF8000041EA002000B2A9F804002878CA
:104F900040F008002870A01D84B2B44214D0C94863
:104FA000007C10F0400F0FD0601C1DF800001DF8B1
:104FB000041040EA012000B2A8F80000287840F070
:104FC00040002870A01C84B2B44214D0BD48007CBC
:104FD00010F0200F0FD0601C1DF800001DF8041009
:104FE00040EA012000B2A8F80200287840F0200032
:104FF0002870A01C84B2B44214D0B248007C10F0D7
:10500000100F0FD0601C1DF800001DF8041040EABE
:10501000012000B2A8F80400287840F010002870A1
:10502000A01C84B2002007E7F8B505460F461646D7
:10503000A44890F8240010B94FF0FF30F8BDA14803
:10504000807A10B94FF0FF30F8E79E4A1268917AE3
:105050009C4A526810786B460222FDF7C2F810B1E4
:105060004FF0FF30EAE79DF801009DF8001040EA9C
:105070000124AC4203DA00203070401EDEE7914884
:1050800040684088B4EB600F17DD8E4A1268517C8F
:105090008C4A526810786B460122FDF7A2F810B1D5
:1050A0004FF0FF30CAE79DF8000010F0100F04D059
:1050B000FFF7B7F86FF00100C0E7824A1268D17AB3
:1050C000804A526810783B46EAB2FDF78AF810B180
:1050D0004FF0FF30B2E794FBF5F0401E3070002037
:1050E000ACE70146774880F82210002070477CB575
:1050F000054674494968087801AB04220D21FDF783
:1051000070F808B107207CBD9DF80700C0F30110BE
:105110009DF8041001F0E00140EAE1008DF8000084
:105120009DF80700C0F381009DF8051001F0E00133
:1051300040EAE1008DF801009DF8070000F003004F
:105140009DF8061001F0E00140EAE1008DF8020050
:1051500000241CE01DF8040018B9002045F82400C4
:1051600013E0594845F8240006E055F82400574953
:1051700003F03EFA45F824001DF80400401E10F02C
:10518000FF000DF80400F0D100BF601CC4B2032C76
:10519000E0DB0020B7E72DE9FE4F06460F4600256D
:1051A0006846FFF7A4FF002440E056F8240057F8B3
:1051B0002410B0EB010A01D4514601E0CAF100010C
:1051C000084603F0B5F983464FF08F4103F07EF8AF
:1051D00080465DF82400002103F03AF916D05DF80E
:1051E0002410404603F072F882464FF07E5103F0DF
:1051F00003FB814629F0004A3548416A504603F0D6
:10520000CAFA12D20120A04005430EE03048C1691D
:10521000404603F0B9F905D32D48016A404603F032
:10522000BAFA02D20120A0400543641C032CBCDB67
:105230002846BDE8FE8F2DE9FC5F06460F46002597
:1052400020494968087801AB03220D21FCF7C9FF0A
:1052500010B10720BDE8FC9F9DF8040000F01F007E
:105260008DF804009DF8050000F01F008DF8050082
:105270009DF8060000F01F008DF8060000245FE096
:1052800056F8240057F82410B0EB010B01D459460E
:1052900001E0CBF10001084603F04AF94FF08F41DD
:1052A000009003F013F8814601A8005DB8B30849E7
:1052B000086803F055F983460146064803F006F8EE
:1052C00080460EE0400100207B14AE3E1D5A843F14
:1052D000008A000800B04C45FF49404603F088F9B9
:1052E000804601A8005D401E10F0FF0001A908558E
:1052F000F2D14146484602F0E9FF83464FF07E5125
:1053000003F07AFA82462AF0004BF4488169584645
:1053100003F041FA13D20120A04005430FE0FFE75C
:10532000EE480169484603F02FF905D3EB4841697F
:10533000484603F030FA02D20120A0400543641C25
:10534000032C9DDB284685E72DE9F74F92B00646F2
:105350000C4601208DF8200000208DF82100E04A45
:105360001268917CDE4A5268107808AB0222FCF782
:10537000E9FE20B14FF0FF3015B0BDE8F08FC82036
:10538000FCF78BFD00208DF82000D54A1268D17BF8
:10539000D34A5268107808AB0122FCF7D3FE10B153
:1053A0004FF0FF30E8E7CE4A12685179CC4A526894
:1053B000107808AB0122FCF7C5FE10B14FF0FF30AA
:1053C000DAE7C74A1268917CC54A5268107808AB80
:1053D0000122FCF7B7FE10B14FF0FF30CCE7C04A16
:1053E0001268D17DBE4A5268107808AB0122FCF7E2
:1053F000A9FE10B14FF0FF30BEE7B94A126811792B
:10540000B74A5268107808AB0122FCF79BFE10B136
:105410004FF0FF30B0E70C208DF82000B04A126842
:105420001179AF4A5268107808AB0122FCF78AFE66
:1054300010B14FF0FF309FE70F20FCF72EFDA8487A
:10544000806A407A8DF82000A54A12689178A44AB3
:105450005268107808AB0122FCF774FE10B14FF0CF
:10546000FF3089E79E48806A007A8DF820009C4AC8
:10547000126851789A4A5268107808AB0122FCF7FA
:1054800061FE10B14FF0FF3076E7149838B19448C0
:10549000806A807A40F0E0008DF8200004E09048B7
:1054A000806A807A8DF820008D4A126891798C4A42
:1054B0005268107808AB0122FCF744FE10B14FF09F
:1054C000FF3059E7149838B18548806AC07A40F0B7
:1054D000E0008DF8200003E08048C07A8DF82000BD
:1054E0007F4A1268D1797E4A5268107808AB01224F
:1054F000FCF728FE10B14FF0FF303DE7149810B1D3
:10550000C820FCF7CAFC40208DF82000744A1268BD
:105510001179734A5268107808AB0122FCF712FE29
:1055200010B14FF0FF3027E778208DF820006C4A4B
:10553000126851796A4A5268107808AB0122FCF768
:1055400001FE10B14FF0FF3016E764498889FCF77F
:10555000A4FC00208DF82000614A12685179604A4D
:105560005268107808AB0122FCF7ECFD10B14FF047
:10557000FF3001E75A4A1268917A594A5268107806
:1055800008AB0222FCF72DFE10B14FF0FF30F3E61E
:105590009DF821009DF8201040EA012006900C2182
:1055A000069890FBF1F0C5B20020B06070603060EA
:1055B000A06060602060079065E0494A1268D17A77
:1055C000474A5268107808AB0C22FCF70AFE10B16B
:1055D0004FF0FF30D0E69DF821009DF8201040EA02
:1055E000012000B2ADF810009DF823009DF82210B4
:1055F00040EA012000B2ADF812009DF825009DF8A8
:10560000241040EA012000B2ADF81400BDF91010DA
:10561000206808442060BDF912106068084460608A
:10562000BDF91410A0680844A0609DF827009DF8FB
:10563000261040EA012000B2ADF808009DF82900CC
:105640009DF8281040EA012000B2ADF80A009DF84C
:105650002B009DF82A1040EA012000B2ADF80C00A2
:10566000BDF90810306808443060BDF90A10706850
:1056700008447060BDF90C10B0680844B060079829
:10568000401CC0B207900798A84296DB13480068F8
:1056900003903768F817102211903846119901F0DD
:1056A000D5FACDE900010023039A01F0F5FA2A4664
:1056B0000023CDE9040101F0EFFA306007480068EB
:1056C0000390D6F804804FEAE8701022109040460C
:1056D000109901F0BBFA05E054E3853F008A000809
:1056E00040010020CDE900010023039A01F0D4FA23
:1056F0002A460023CDE9040101F0CEFA7060FA4891
:1057000000680390D6F808904FEAE97010220F90D5
:1057100048460F9901F09AFACDE900010023039A57
:1057200001F0BAFA2A460023CDE9040101F0B4FAE7
:10573000B060ED4840680390D4F800A04FEAEA70EA
:1057400010220E9050460E9901F080FACDE900012A
:105750000023039A01F0A0FA2A460023CDE90401B0
:1057600001F09AFA2060E04840680390D4F804B051
:105770004FEAEB7010220D9058460D9901F066FA31
:10578000CDE900010023039A01F086FA2A4600239E
:10579000CDE9040101F080FA6060D34840680390CD
:1057A000A068C1171022CDE90B1001F04FFACDE926
:1057B00000010023039A01F06FFA2A460023CDE985
:1057C000040101F069FAA060A068002804DDA06867
:1057D000A0F58030A06003E0A06800F58030A060F4
:1057E0000020C9E538B50446C04890F82400A0421E
:1057F00001D1002038BD24B3BC4890F8250010B971
:105800004FF0FF30F6E70020FEF744FB0020FEF7E4
:1058100063FCB649C88CFEF7C8FE00200090B3496F
:10582000496808786B4601222321FCF78BFC012193
:10583000AE4880F824100120FEF72CFBFEF7F1FCA7
:1058400013E00020FEF726FBA848007C0090A74943
:10585000496808786B4601222321FCF773FC00217C
:10586000A24880F82410FEF7DCFC0020C2E72DE9F6
:10587000F04F8DB083460F4602200C909B4890F865
:10588000240020B10020FFF7ADFF012600E0002634
:1058900003A8FFF7CEF905A8FFF7EBF901A8FFF77A
:1058A0000CFA02A8FFF72EFA904890F80AA004A874
:1058B000FFF782FA002407E0002239465846FFF736
:1058C00043FD00B902E0641C022CF5DB00BF022C92
:1058D00001D1002528E0002407E0012206A909A83B
:1058E000FFF732FD00B902E0641C022CF5DB00BFBB
:1058F000022C01D1002517E006A93846FFF74BFC22
:1059000000F0FF0809A95846FFF795FC00F0FF09D1
:105910000025B9F1000F01D145F00105B8F1000FE4
:1059200001D145F0020500BFFF2070490872FF2138
:105930006E484172C1724FF6FF71C181FF218172C1
:10594000017401210173BDF80C00FEF7BBFE9DF848
:105950001400FEF776FEBDF80400FEF77AFDBDF8F0
:105960000800FEF722FE5046FEF751FB9DF810009E
:10597000FEF73AFD16B10120FFF734FF28460DB0BF
:10598000BDE8F08FF8B504460D46164616B94FF03F
:10599000FF30F8BD5548807A10B94FF0FF30F8E776
:1059A00020128DF80000E0B28DF801009DF8010092
:1059B00028444E4949684989884202DD4FF0FF304A
:1059C000E7E74A4A1268117E484A526810786B46E7
:1059D0000222FCF7B7FB10B14FF0FF30D9E7434A82
:1059E0001268517D414A526810783346EAB2FCF79A
:1059F000A9FB10B14FF0FF30CBE70020C9E7F8B5A5
:105A000004460D46164616B94FF0FF30F8BD37482C
:105A1000807A10B94FF0FF30F8E720128DF80000BF
:105A2000E0B28DF801009DF8010028442F49496833
:105A30004989884202DD4FF0FF30E7E72B4A1268C0
:105A4000117E2A4A526810786B460222FCF77AFBD4
:105A500010B14FF0FF30D9E7244A1268517D234A34
:105A6000526810783346EAB2FCF7BBFB10B14FF036
:105A7000FF30CBE70020C9E72DE9F04385B00546AC
:105A80000E4690469946194890F8250020B14FF0EF
:105A9000FF3005B0BDE8F08316B94FF0FF30F8E7EE
:105AA000002427E0281B102801DD102000E0281B1F
:105AB00087B2321939462046FFF764FF10B14FF024
:105AC000FF30E6E701AA39462046FFF798FF10B1FC
:105AD0004FF0FF30DDE730193A4601A901F000F937
